:020000040800F2
:1000000088590020DD010008371A0008131700087E
:10001000351A0008E1020008B923000800000000BA
:100020000000000000000000000000004501000882
:10003000050300080000000089010008F91F0008FE
:10004000F7010008F7010008F7010008F7010008B0
:10005000F7010008F7010008F7010008F7010008A0
:10006000F7010008F7010008F7010008F701000890
:10007000F7010008F7010008F7010008F701000880
:10008000F7010008F7010008F7010008F701000870
:10009000F7010008F7010008F7010008F701000860
:1000A000F701000885200008F7010008F7010008A3
:1000B000F7010008F7010008F7010008F701000840
:1000C000F7010008F7010008F7010008F701000830
:1000D000F7010008F7010008F7010008AD23000848
:1000E000F7010008F7010008F7010008F701000810
:1000F000F7010008F7010008F7010008F701000800
:10010000F7010008F7010008F7010008F7010008EF
:10011000F7010008F7010008F7010008F7010008DF
:10012000F7010008F7010008F7010008F7010008CF
:10013000DFF80CD000F0C2F800480047E9280008BA
:1001400088590020224B19680868B0E8F00F80F346
:100150000988BFF36F8F4FF0000080F311884EF0D5
:100160000D0E70470000000006480068006880F32C
:10017000088862B661B6BFF34F8FBFF36F8F00DFA1
:1001800000BF00BF08ED00E0EFF30980BFF36F8F01
:100190000F4B1A6820E9F00F106008B54FF05000BF
:1001A00080F31188BFF34F8FBFF36F8F03F028F8F0
:1001B0004FF0000080F31188BDE808401968086816
:1001C000B0E8F00F80F30988BFF36F8F704700BF6E
:1001D00024000020EFF305807047000006488047A8
:1001E00006480047FEE7FEE7FEE7FEE7FEE7FEE71C
:1001F000FEE7FEE7FEE7FEE7832000083101000886
:1002000040EA01039B0703D009E008C9121F08C098
:10021000042AFAD203E011F8013B00F8013B521E18
:10022000F9D27047D2B201E000F8012B491EFBD28F
:1002300070470022F6E710B513460A4604461946F1
:10024000FFF7F0FF204610BD30B505462A460B46A5
:1002500012F8010B13F8014B08B1A042F8D01CB101
:10026000002802D06D1CF1E7284630BDCAB2401EFE
:1002700010F8011F8A4202D00029F9D100207047EE
:10028000421C10F8011B0029FBD1801A704730B5C1
:100290000B46014600202022012409E021FA02F544
:1002A0009D4205D303FA02F5491B04FA02F52844DE
:1002B000151EA2F10102F1DC30BD0000064C074D15
:1002C00006E0E06840F0010394E807009847103426
:1002D000AC42F6D3FFF730FF803B0008A03B00089C
:1002E000FEE7000001225102014800F0D7B90000EA
:1002F0000020014000224FF40071014800F0CEB907
:1003000000200140704772B6FEE710B590F821104A
:100310000022022905D00421816380F820200120D9
:1003200010BD01680B6823F00E030B6001680B68B9
:1003300023F001030B6090F84030C46B012101FAF7
:1003400003F3636080F8211080F82020104610BD70
:100350002DE9F05F90F821100024022903D0042138
:100360008163012485E001680A6822F00E020A60B8
:1003700001680A6822F001020A603F4E3E4FB21542
:10038000DFF8F4C0DFF8F090DFF8ECA0DFF8E8B0B9
:10039000DFF8E4E00168783F13011502ACF1640C6A
:1003A000A9F15009AAF13C0AABF1280BAEF1140EE9
:1003B0004FF48018B14227D9B9420ED0614512D00E
:1003C00049451DD0514518D0594518D0714501D126
:1003D000424615E0294EB14201D1012210E0274EDC
:1003E0001436B14201D110220AE0244E2836B1421F
:1003F00006D0224A3C32914201D11A4600E02A46F8
:100400001E49091F0A602BE0B94213D0614517D07D
:10041000494522D051451DD059451DD0714501D1C6
:1004200042461AE0B14202D14FF0807215E0134EFD
:10043000B14201D1012210E0104E1436B14201D177
:1004400010220AE00D4E2836B14206D00B4A3C324B
:10045000914201D11A4600E02A46074980394A6094
:10046000012180F82110002180F82010416B01B19A
:1004700088472046BDE8F09F800002400804024003
:1004800070B5044600F010F90546601C02D004481F
:100490000078044400F008F9401BA042FAD370BD74
:1004A000140000202DE9F84FDFF8C8910024A9F1CD
:1004B000040B23460F2709F1040AABF1040ED1E027
:1004C0000125A54006EA0502AA4276D1DFF8A8C1B7
:1004D0004E68A6EB0C0866452BD00DDC032E34D0FD
:1004E00005DC36B3012E19D0022E2FD11BE0112EC0
:1004F00016D0122E2AD119E0B8F5881F19D006DCC3
:10050000B8F5803F15D0B8F5801F1FD111E0B8F5C0
:10051000001F0ED0B8F5041F18D10AE0CB6815E013
:10052000CB681B1D12E0CB6808330FE0CB680C339F
:100530000CE08B682BB1012B4FF0080303D0456111
:1005400004E0042302E0056100E00023FF2A01D853
:10055000064601E000F104064FEA840501D9A5F141
:100560002005D6F8008007FA05FC28EA0C0803FAF3
:1005700005F548EA0508C6F800804D68ED0070D51D
:100580003E4DAE6946F00106AE61AD6924F003064A
:1005900005F0010500953A4D06EB050CDCF8085016
:1005A000A607360F07FA06F825EA0805DFF8D48013
:1005B000404503D14FF0000825E052E0DFF8C88045
:1005C000404502D14FF001081DE0DFF8C0804045F2
:1005D00002D14FF0020816E0DFF8B480404502D1A6
:1005E0004FF003080FE0DFF8AC80404502D14FF038
:1005F000040808E0DFF8A080404502D14FF005086C
:1006000001E04FF0060808FA06F848EA0508CCF8B9
:1006100008804D68D9F80060ED024D4601D51643BB
:1006200000E096432E604D68DAF80060AD02554652
:1006300001D5164300E096432E604D68DBF800605C
:10064000AD035D4601D5164300E096432E604D682C
:10065000DEF80060ED03754601D5164300E09643D1
:100660002E60641C0A681646E2407FF429AFBDE89C
:10067000F88F000008040140000011100010024033
:100680000000014000080140000C01400010014042
:100690000014014000180140001C01400AB1016132
:1006A00070470904FBE700000148806870470000BC
:1006B000140000200248816802781144816070476C
:1006C00014000020074810B5016841F010010160D6
:1006D000032000F095F80F2000F006F800F03EF837
:1006E000002010BD0020024000B5014687B0002266
:1006F000192000F065F8192000F054F813488169BA
:1007000041F400618161806905A900F400600690F0
:10071000684600F01DF900F04BF90D490D4AB0FB99
:10072000F1F10D48491E0260416040F2E7320021BC
:10073000C0E90321816000F08DFC10B1012007B0F9
:1007400000BD054800F0B4FCF9E7000000100240CD
:1007500040420F00002C01404C0400200F4808B517
:10076000816941F001018161816901F0010100911C
:10077000C16941F08051C161C069002200F0805020
:1007800000900F21901E00F01BF80548416821F0F1
:10079000E06141F00071416008BD000000100240BE
:1007A00000000140002809DB00F01F0201219140F8
:1007B0004009800000F1E020C0F8001170470000FF
:1007C000F0B40E4B1B680C46C3F30223C3F10705BC
:1007D000042D00D90425191D072901D2002300E0AA
:1007E000DB1E012606FA05F1491E214099409E4074
:1007F000761E16403143F0BC01F004BE0CED00E063
:10080000064900F0070208684FF6FF03184040EA67
:100810000220034A10430860704700000CED00E01E
:100820000000FA052DE9F0470F46050061D0434E60
:10083000306800F00700B84209D2306820F00700A5
:1008400038433060306800F00700B84251D1286862
:100850003B4C810712D5400703D5606840F4E06047
:1008600060602878000703D5606840F460506060DD
:100870006068A96820F0F000084360602878C0072D
:1008800028D06868012810D02168022810D0890774
:1008900000292EDA616821F0030101436160FFF74E
:1008A00003FF804641F288390DE021688903EFE7B4
:1008B0008901EDE7FFF7F8FEA0EB0801494502D9F1
:1008C0000320BDE8F0876068696800F00C00B0EBB9
:1008D000810FEFD1306800F00700B8420BD93068C3
:1008E00020F0070038433060306800F00700B8425D
:1008F00001D00120E5E72878400705D56068E96860
:1009000020F4E060084360602878000706D560683E
:10091000296920F4605040EAC100606000F058F896
:100920006168084AC1F30311515CC8400649086078
:1009300006480068FFF7D8FE0020C2E7002002400A
:1009400000100240423B0008200000201800002058
:100950000F2202600C4A536803F00303436053689C
:1009600003F0F0038360536803F4E063C3605268EC
:100970004FF4E06303EAD20202610448006800F029
:10098000070008607047000000100240002002408D
:100990000448054900684968044AC1F30221515CD2
:1009A000C84070472000002000100240523B000861
:1009B0000448054900684968044AC1F3C221515CF2
:1009C000C84070472000002000100240523B000841
:1009D0000E4A51680E4801F00C03042B11D0082B6D
:1009E0000FD10C48C1F38343C903C05C0AD55168D9
:1009F000084AC1F34041921E515C054A5043B0FB86
:100A0000F1F070470449484370470000001002406D
:100A100000127A00323B000800093D002DE9F84F32
:100A2000040070D02078C04DC00749D06868C0F37A
:100A30008100012807D06868C0F38100022809D12D
:100A40006868C00306D52868800339D56068002827
:100A5000E7D035E06068B0F5803F0BD010B1B0F55D
:100A6000A02F11D0286820F480302860286820F456
:100A7000802002E0286840F480302860606890B1EF
:100A8000FFF712FE06460AE0286840F4802028603E
:100A9000F0E700BFFFF708FE801B642873D82868C2
:100AA0008003F7D50CE0FFF7FFFD064605E000BF29
:100AB000FFF7FAFD801B6428F0D828688003F7D47C
:100AC00020789A4E80074FF001094FF0000839D581
:100AD000686810F00C0F07D06868C0F38100022826
:100AE00009D16868C00306D42868800714D5206936
:100AF000012808D110E02069B0B1C6F80090FFF7D6
:100B0000D3FD074605E00AE1FFF7CEFDC01B022832
:100B1000C4D828688007F7D52868616920F0F800F4
:100B200040EAC10028600DE0C6F80080FFF7BCFD78
:100B3000074604E0FFF7B8FDC01B022823D8286849
:100B40008007F7D4207800072CD57948A169D9B15E
:100B5000C0F80090FFF7A8FD074604E0FFF7A4FDEA
:100B6000C01B02280FD8686A8007F7D571484FF478
:100B7000FA510068B0FBF1F0009000BF0098411EF0
:100B80000091FAD20EE080E0C0F80080FFF78CFD03
:100B9000074604E0FFF788FDC01B022875D8686A85
:100BA0008007F7D42078400760D5E8690027C000A7
:100BB00008D4E86940F08050E861E869012700F056
:100BC000805000905C480168C90513D401688346D1
:100BD00041F480710160FFF767FD824606E000BFC7
:100BE000FFF762FDA0EB0A0064284ED8DBF8000096
:100BF000C005F5D5E06801280AD008B1052813D052
:100C0000286A20F001002862286A20F0040002E02F
:100C1000286A40F001002862E06841F2883B98B100
:100C2000FFF742FD82460BE0286A40F0040028628C
:100C3000EEE700BFFFF738FDA0EB0A0159455AD88F
:100C4000286A8007F6D50CE0FFF72EFD824605E006
:100C5000FFF72AFDA0EB0A0159454CD8286A800706
:100C6000F6D41FB1E86920F08050E861E06988B3EC
:100C70006968C1F38101022944D00228C6F8608066
:100C800004D0FFF711FD044638E034E0FFF70CFD17
:100C9000074604E0FFF708FDC01B02282BD8286890
:100CA0008001F7D4206AB0F5803F05D16868A1685B
:100CB00020F4003008436860D4E9080108436968FB
:100CC00021F4741108436860C6F86090FFF7ECFCEB
:100CD000044606E025E000BFFFF7E6FC001B022803
:100CE00009D828688001F7D51BE000BFFFF7DCFCBE
:100CF000001B022802D90320BDE8F88F2868800174
:100D0000F4D40EE00128F7D06868226A00F480313C
:100D1000914204D1616A00F47010884201D0012030
:100D2000EAE70020E8E7000000100240000042422D
:100D300080044242200000200070004070B5040092
:100D400009D0606A002540B125616561A56294F80B
:100D5000510040B10CE0012070BD6068B0F5827FA9
:100D6000F4D0E561F2E784F85050204600F040F8F6
:100D7000022084F851002068016821F040010160E0
:100D8000A088218900F4827001F404410843A189FC
:100D900001F400610843217C01F002010843217D38
:100DA00001F001010843218B01F400710843217F08
:100DB00001F03801084394F8201001F08001084345
:100DC000218D01F40051084321680860A0690421C5
:100DD00001EA1040216848602068C16921F400617F
:100DE000C1616565012084F85100002070BD0000DC
:100DF00030B585B0002400940194029403940068F7
:100E00001449884223D11448816941F48051816199
:100E1000816901F480510491816941F0040181618B
:100E200080690E4D00F004000490A0200090022084
:100E300001900320039069462846FFF733FB4020CA
:100E4000CDE90004694628460294FFF72BFB05B064
:100E500030BD000000300140001002400008014099
:100E60002DE9FF4F81B01D46934604464FF001091E
:100E70000E9EFFF719FC074694F85100616801289F
:100E800006D0B1F5827F3CD1A168C9BB042838D116
:100E90000298002871D0BBF1000FFBD0002DF9D0D3
:100EA00094F8500001282CD04FF0010A84F850A08B
:100EB00094F85100042802D0052084F851004FF026
:100EC0000008C4F85480C4F838B0E587A5870299B3
:100ED0002163E586A586C4F84080C4F84480206874
:100EE0000168490603D4016841F040010160E068EF
:100EF000B0F5006F606808D0F0B3012D49D081E0F3
:100F0000FFE7022005B0BDE8F08F08B1012D39D10F
:100F1000206B21680088C860206B801C2063E08EF5
:100F2000401EE0862EE02068816889070FD5E18E9B
:100F300069B1B9F1010F0AD1216B0988C160206B39
:100F4000801C2063E08E401EE0864FF00009206880
:100F50008168C9070CD0E18F51B1C068A16B0880CE
:100F6000A06B801CA063E08F401EE0874FF001095A
:100F7000FFF79AFBC01B01E00BE067E0B04201D332
:100F8000701C50D1E08E0028CDD1E08F0028CAD14E
:100F90003EE0206B216800780873206B401C2063C2
:100FA000E08E401EE0862DE02068816889070FD51D
:100FB000E18E69B1B9F1010F0AD1216B0978017392
:100FC000206B401C2063E08E401EE0864FF000093D
:100FD00020688168C9070CD0E18F51B1C068A16B4E
:100FE0000870A06B401CA063E08F401EE0874FF0AC
:100FF0000109FFF759FBC01BB04202D3701C01D09E
:1010000011E086B1E08E0028CED1E08F0028CBD150
:101010003A463146204600F00FFD50B12020606571
:1010200084F8508012E084F851A084F850800320A6
:1010300068E7A06818B92068C1688068009084F8E3
:1010400051A084F85080606D0028F1D0012059E74C
:101050007047704710B5040003D094F83D0010B1FC
:1010600007E0012010BD002084F83C00204600F07D
:101070001EF8022084F83D00211D206801F008F8C8
:10108000012084F8460084F83E0084F83F0084F88C
:10109000400084F8410084F8420084F8430084F85A
:1010A000440084F8450084F83D00002010BD7047DE
:1010B00090F83D10012901D001207047022180F8ED
:1010C0003D100168CA6842F00102CA6000680E491A
:1010D00088420ED00D4988420BD0B0F1804F08D025
:1010E0000B49884205D00B49884202D00A49884200
:1010F00004D1816801F00701062903D0016841F09D
:101100000101016000207047002C014000340140C3
:101110000004004000080040000C004070472DE92A
:10112000F04104460068C66805694FF00007A9074A
:1011300013D5B10711D5F91E016101202077206870
:1011400080698007204602D0FFF7E8FF04E000F046
:101150007EF8204600F07CF82777680716D57007E0
:1011600014D521686FF00400086102202077206800
:10117000806910F4407F204602D0FFF7CFFF04E0E3
:1011800000F065F8204600F063F82777280715D5AA
:10119000300713D521686FF008000861042020771C
:1011A0002068C0698007204602D0FFF7B7FF04E03F
:1011B00000F04DF8204600F04BF82777E80616D5EA
:1011C000F00614D521686FF0100008610820207720
:1011D0002068C06910F4407F204602D0FFF79EFFD0
:1011E00004E000F034F8204600F032F82777E807F2
:1011F00008D0F00706D021686FF001000861204692
:1012000000F028F8280608D5300606D521686FF0CA
:10121000800008612046FFF71BFF680608D57006AE
:1012200006D521686FF040000861204600F01CF8E8
:10123000A8060AD5B00608D521686FF0200008611D
:101240002046BDE8F041FFF704BFBDE8F0817047DC
:101250007047000000680349884201D1FFF72ABAAD
:1012600070470000002C0140704770477047000035
:10127000F8B5016804460868CA684B6910F00F0F9A
:101280004FF0000559D003F0010602F49077374380
:1012900065D0C10705D0D10503D5616C41F00101CE
:1012A0006164410705D5D90703D0616C41F00201A3
:1012B0006164810705D5D90703D0616C41F0040151
:1012C0006164010707D502F02001314303D0616C4E
:1012D00041F008016164616C00293AD0800604D5B0
:1012E000900602D5204600F050FF20684069616CEE
:1012F000C0F38010090700D460B3204600F01EFF41
:1013000020684069400621D52068143050E8001F4D
:1013100021F0400140E80012002AF5D1E06BA8B1AD
:101320006D494163E06BFFF713F8002811D0E06BC3
:10133000416B01B0BDE8F040084783060FD5930626
:101340000DD52046BDE8F84000F01FBF2046FFF74E
:101350008DFFF8BD2046FFF789FF6564F8BD266B59
:101360002023012E7CD1C6067AD5D60678D508680A
:101370004868009048694FF00206400640D5E16B8E
:10138000086840680004000CE8D0A28D8242E5D9CC
:10139000E085886920282DD020680C3050E8001F97
:1013A00021F4807140E80012002AF5D12068143041
:1013B00050E8001F21F0010140E80012002AF5D199
:1013C0002068143050E8001F21F0400140E800126E
:1013D000002AF5D184F84230256320680C3050E8AB
:1013E000001F21F0100140E80012002AF5D1E06B47
:1013F000FEF78BFF6663A08DE18D401A81B22AE073
:10140000A08DE18D401A81B2E08D0028A6D0002980
:10141000A4D022680C3252E8000F20F4907042E809
:101420000007002FF5D12068143050E8002F22F07B
:10143000010240E80027002FF5D184F842302563EF
:1014400020680C3050E8002F22F0100240E8002302
:10145000002BF5D166632046FFF707FFF8BDFFE7D5
:1014600005062BD5150629D594F841002128F5D17C
:10147000A068B0F5805F01D12069B0B1206A411C3D
:101480002162216800784860E08C401E0004000C56
:10149000E084E3D12068C16821F08001C160206848
:1014A000C16841F04001C160D8E7206A0088C0F3FC
:1014B00008004860206A801C2062E5E74006CDD520
:1014C0005006CBD5CA68204622F04002CA6084F894
:1014D000413000F01DF9C1E72D21000870B504006E
:1014E00004D094F84100002510B106E0012070BD41
:1014F00084F84050204600F023F8242084F841006E
:101500002068C16821F40051C160204600F09EFEB1
:101510002068016921F4904101612068416921F04E
:101520002A0141612068C16841F40051C1606564CD
:10153000202084F8410084F842006563002070BDDB
:1015400070B586B00024009401940294039403685B
:101550002B482A4E022103220515B34221D183696B
:1015600043F480438361836903F480430493836974
:1015700043F0040383618069224E00F0040004906C
:101580000802CDE90001039269463046FEF78AFF62
:10159000CDE90054694630460294FEF783FF06B059
:1015A00070BD194EB342FAD1C36943F48023C361BD
:1015B000C36903F480230493836943F008038361C0
:1015C0008069CDE9005100F00800CDE903200F4DFE
:1015D00069462846FEF766FFE814CDE9000469462F
:1015E00028460294FEF75EFF002205212720FFF720
:1015F000E7F82720FFF7D6F8D1E7000000380140D0
:10160000001002400008014000480040000C01406A
:1016100090F84230202B01D00220704721B11AB13E
:101620000023036300F06EBE0120704700680C4980
:10163000884213D10B480C4B0278401E41885A5403
:10164000491C89B24180072903D30121017000217F
:101650004180012203490548FFF7DABF70470000C7
:1016600000480040010000209000002004040020F9
:101670002DE9F843044690F84100984616460D4679
:10168000202802D00220BDE8F88385B17EB1002079
:101690006064212084F84100FFF706F8A6848146A3
:1016A000E684A0682027B0F5805F02D003E0012027
:1016B000E9E7206910B12E4600250EE000260CE077
:1016C0008021204600F039FEA8B9C6B116F8010BFA
:1016D00021684860E08C401EE084E08C4B464FF06F
:1016E0000002CDF800800028EAD14FF040012046EA
:1016F00000F023FE40B184F841700320C3E735F8C1
:10170000020BC0F30800E3E784F841700020BAE759
:101710007047FEE770B504460E460846FEF7B0FD7A
:1017200085B21020207005F10C0060700020A070C0
:101730000421E1704D222271512262715422A27162
:10174000E271217202236372A0723C20E072280AC7
:101750002073657304F10E002A463146FEF750FDF2
:101760000E35A8B270BD2DE9F04705469046894672
:101770000846FEF785FD86B24046FEF781FD87B23A
:1017800030202870F019801C80B27F2806D940F0E4
:101790008001C0096970A870032401E06870022408
:1017A000300A2855641C32462E55641C28194946B7
:1017B000FEF726FDA01984B228193A464146FEF7E5
:1017C0001FFDE01980B2BDE8F0872DE9F041054624
:1017D0000F460846FEF754FD84B282202870601D33
:1017E000687000260121AE70E970200A28716C71C2
:1017F000A81D22463946FEF703FDA41DA0B22E54B3
:10180000401C80B2BDE8F08110B5174B9AB015AC02
:101810000FCB84E80F00002115A801F0A1F8134CAC
:1018200011491C22E06010316846FEF7E9FC0021F6
:10183000684601F0A8F80C4920601C222C3107A84A
:10184000FEF7DEFC002107A801F09DF80649606064
:101850001C2248310EA8FEF7D3FC00210EA801F08F
:1018600092F8A0601AB010BDCC3A00080400002025
:101870002DE9F04F85B000243B4800940194029478
:101880000394816941F040018161816901F0400167
:101890000491816941F004018161816901F00401D1
:1018A0000491816941F008018161816901F00801B9
:1018B0000491816941F480718161816901F48071D1
:1018C0000491816941F0200181618069DFF89C9079
:1018D00000F020000490002220214846FEF7DEFEA2
:1018E000DFF88CA0002280215046FEF7D7FEDFF8FB
:1018F00084B04FF40078012241465846FEF7CEFEF0
:10190000002220211C48FEF7C9FE202702260125BF
:1019100000970396CDE9015469464846FEF7C2FD9B
:1019200040208DE8310069465846FEF7BBFD802017
:10193000CDE90005CDE9024669465046FEF7B2FD05
:10194000CDF800800396CDE9015469465846FEF76C
:10195000A9FD00970396CDE9015469460648FEF7B4
:10196000A1FD05B0BDE8F08F001002400018014055
:101970000014014000200140000C0140104810B547
:101980000E4901604FF48271416000218160C160A5
:101990004FF400720161C0E905121822C0E9072165
:1019A000416281620A21C162FFF7C8F9002803D0B1
:1019B000BDE81040FEF7A7BC10BD0000003001409C
:1019C000640300200C4810B50A4901604FF4E1316E
:1019D0004160002181600C22C160C0E90412816174
:1019E000C161FFF77BFD002803D0BDE81040FEF782
:1019F0008ABC10BD00380140BC0300200C4810B563
:101A00000A4901604FF416514160002181600C22A7
:101A1000C160C0E904128161C161FFF75FFD002868
:101A200003D0BDE81040FEF76EBC10BD004800407A
:101A300004040020FEE7FEE7F8B515460E460B4607
:101A4000009204460122022100F010F840B933460A
:101A5000002280212046009500F008F8002804D0DC
:101A6000606D40F0200060650320F8BD2DE9F8436B
:101A70001E46914688460446089DFEF715FE401B0B
:101A8000351AFEF711FE074625480068C0F3CB3033
:101A9000684338E0701C37D0FEF706FEC01BA84232
:101AA00003D215B1009860B32CE02068416821F0A2
:101AB000E00141606068B0F5827F0BD1A068B0F5AD
:101AC000004F02D0B0F5806F04D12068016821F08A
:101AD00040010160A06AB0F5005F09D1206801688B
:101AE00021F4005101602068016841F40051016057
:101AF000012084F85100002084F850000320BDE844
:101B0000F8830025401E00902068816838EA0100B3
:101B100004D000214945BDD10020F0E70121F9E7BB
:101B20002000002001B582B000208DF804000A20BA
:101B30000090012301AA02A90448FFF791F908B116
:101B4000FF200EBD9DF804000EBD000064030020C0
:101B5000012000F0F9FEFBE7ADF51C7D88A08BA10C
:101B60000068989087A000270068999084A03C4660
:101B700000689A9084A040F25B7500689B90D1E960
:101B80000001CDE9930183A000F018FC874E0022EC
:101B900080213046FEF782FD3220FEF771FC0122E3
:101BA00080213046FEF77AFDC820FEF769FCC82088
:101BB00000F0CAFE7EA000F001FC93A800F07AFDC0
:101BC00099A800F065FD9AA800F050FD9BA800F0D0
:101BD00086FD322000F0B8FE00F033FDC82000F092
:101BE000B3FE012000F08DFD79A000F0E7FB02E0DC
:101BF000642000F0A9FE00F006FD0128F8D07CA0CA
:101C000000F0DCFB0321384600F039FE98A9384685
:101C100000F009FE2946384600F01EFE79A000F0CB
:101C2000CDFB384600F0C8FD142000F08DFE38468C
:101C300000F035FEDFF8EC816D464FF47A793846D6
:101C400000F0ABFD384600F094FD002832D0384655
:101C500000F08FFD064601466A46384600F068FDF2
:101C60000020A855202103E02A5C02B92954401C19
:101C7000B042F9DB69466CA000F0A0FB6FA168469A
:101C8000FEF7E2FA060015D03121FEF7EFFA20B197
:101C90006BA000F093FB002208E030213046FEF7F5
:101CA000E5FA38B16CA000F089FB01222021404602
:101CB000FEF7F4FC97A9384600F0B0FC9DF85D02F1
:101CC000042806D000284BD05FF0640000F03CFEF2
:101CD000B5E72CB3012C32D0022CB0D16548642278
:101CE00096A9C06801F056FC0128A8D1402183A81C
:101CF000FEF79FFABDF858225FA183A800F06EFBA3
:101D000083AA61A140A8FFF72EFD064683A961A022
:101D100000F054FB324640A9384600F066FD8EE7DD
:101D200061A000F04BFB67A140A8FFF7F3FC02465F
:101D300040A9384600F059FD01244846C6E765A091
:101D400000F03CFB6DA140A8FFF73FFD024640A913
:101D5000384600F04AFD0224484600F0F5FDBDE794
:101D60006AA000F02BFB0024384600F025FD14206B
:101D700000F0EAFD384600F092FD4FF4FA60A5E766
:101D8000C0A87B58C0A87BC8FFFFFF0000AABBCC3F
:101D9000DDEE00004348333935513A205265736512
:101DA0007474696E672E2E2E0D0A00000014014017
:101DB0004348333935513A20436F6E666967204E88
:101DC000657420506172616D732E2E2E0D0A000015
:101DD0004348333935513A2057616974696E672039
:101DE000666F72204C696E6B2E2E2E0D0A0000005D
:101DF0004348333935513A204C696E6B2055502198
:101E00000D0A00004348333935513A20436F6E6E56
:101E100065637420746F204D5154542E2E2E0D0A7C
:101E2000000000000018014044454255472052651B
:101E300063763A205B25735D0D0A00006C656400D3
:101E4000434D443A204C4544204F4E20285365745E
:101E5000204C6F77290D0A00434D443A204C4544ED
:101E6000204F464620285365742048696768290D2D
:101E70000A000000040000207B2274656D70223A85
:101E80002025647D000000006465766963652F6429
:101E9000617461004D5154543A205075626C6973FD
:101EA000682025730D0A000053656E64696E672013
:101EB0004D51545420434F4E4E4543542E2E2E0D1B
:101EC0000A00000053544D33325F477261647561FC
:101ED000746500005375627363726962696E67208E
:101EE000746F20276465766963652F636F6E747203
:101EF0006F6C272E2E2E0D0A000000006465766997
:101F000063652F636F6E74726F6C000054435020D2
:101F1000436C6F7365642E205265636F6E6E6563EC
:101F200074696E672E2E2E0D0A0000000EB51AA1E0
:101F30000025D1E900011A4C1A4E1B4FCDE90001D2
:101F4000ADF808504FF47A786423082269461748A0
:101F5000FFF78EFB16A000F031FAC82000F0F4FC69
:101F60002078012806D018A000F028FA404600F09A
:101F7000EBFCE9E72570F078317941EA0021ADF812
:101F8000081016A000F01AFA00231A4602A9F868F1
:101F900001F050FAEAE70000010300000001840AA2
:101FA0000000002090000020040000200404002015
:101FB0004D6F646275733A2053656E742051756578
:101FC00072792E2E2E0D0A004D6F646275733A20C1
:101FD00054696D656F7574210D0A00004D6F646260
:101FE00075733A20476F742056616C7565203D20EB
:101FF00025640D0A0000000010B5502080F3118800
:10200000BFF34F8FBFF36F8F01F004FC18B1044989
:102010004FF080500860002080F3118810BD000050
:1020200004ED00E030B58FB028216846FEF701F9D5
:1020300014210AA8FEF7FDF801210804CDE90010DB
:102040000024029402250491CDE907504FF4E010DA
:1020500009906846FEF7E2FC08B172B6FEE70F2071
:10206000CDE90A054FF48060CDE90C4002210AA8B1
:102070000E94FEF7D7FB002801D072B6FEE70FB032
:1020800030BD70470148FFF74AB800004C040020FB
:10209000F0B50268204C214D214E224F224B4FF0CB
:1020A000804CA04209D0984207D0604505D0A84294
:1020B00003D0B04201D0B84204D122F0700E4A6879
:1020C00042EA0E02A04209D0984207D0604505D0EE
:1020D000A84203D0B04201D0B84203D122F44075E7
:1020E000CA682A434D6922F080022A4302608A6846
:1020F000C2620A688262A04201D0984201D1096995
:102100000163012141610169C90703D0016921F01F
:1021100001010161F0BD0000002C014000040040FD
:1021200000080040000C00400034014010B5406A37
:102130000021C185C184FFF799F810BD01680C31F9
:1021400051E8002F22F4907241E80023002BF5D1D2
:102150000168143151E8002F22F0010241E8002308
:10216000002BF5D1016B012909D101680C3151E82F
:10217000002F22F0100241E80023002BF5D120218E
:1021800080F8421000210163704708B590F84210B2
:10219000222901D0022008BD82684FF480539A4260
:1021A00001D1016921B1816A9A421BD04AB10AE08A
:1021B0000268816A5268C2F308020A80816A891C37
:1021C00008E0026972B10268526802F07F020A7088
:1021D000816A491C8162C18D491E0904090CC185AF
:1021E00003D01BE002685268F1E70168CA6822F078
:1021F0002002CA600168CA6822F48072CA6001685D
:102200004A6922F001024A61202180F8421000212F
:102210004163026B012A03D0FFF708FA002008BDD2
:10222000016301680C3151E8002F22F0100241E8EF
:102230000023002BF5D101680A68D20602D50A688E
:1022400049680091818DFFF710F8E7E770B5044603
:1022500000680169E26821F440511143016121697C
:10226000A0680843616908432168CA6841F20C63A9
:102270009A430243CA6020684169A26921F440710F
:10228000114341611E492068884202D1FEF790FB4C
:1022900001E0FEF77DFB00EBC00101EB001260687E
:1022A00064218000B2FBF0F3B3FBF1F36FF018068A
:1022B0007343B2FBF0F5B2FBF0F605EB8305322376
:1022C00003EB0515B5FBF1F5B6FBF1F605F0F005EE
:1022D00005EB0615B2FBF0F6B2FBF0F0B0FBF1F047
:1022E0006FF01802504306EB800003EB0010B0FBC8
:1022F000F1F0216800F00F002844886070BD0000F4
:102300000038014081628285C2850021416422211A
:1023100080F84210016921B10168CA6842F48072F4
:10232000CA6001684A6942F001024A610068C168F6
:1023300041F02001C160002070472DE9F843984624
:1023400017460D460446089E24E0701C22D0FEF776
:10235000ABF9A0EB0800B0421AD8CEB12068C16832
:10236000490717D5802D15D0402D13D00168C943DA
:1023700009070FD401680025406800902046FFF748
:10238000DDFE0820606484F840500120BDE8F88339
:102390000320FBE72068006835EA000004D0002035
:1023A000B842D2D00020F1E70120F9E70148FEF75A
:1023B0005FBF000004040020FEE700000FB4054BDF
:1023C00010B503A9044A029800F03CF810BC5DF86F
:1023D00014FB0000D12800088C0000200FB4084B2B
:1023E00010B504A902AA039800F02CF8044602A92B
:1023F000002000F003F9204610BC5DF814FB00003B
:10240000FD2500080907090E002804DB00F1E02083
:1024100080F80014704700F00F0000F1E02080F811
:10242000141D704702E008C8121F08C1002AFAD123
:1024300070477047002001E001C1121F002AFBD144
:10244000704700002DE9FF4F8BB09A460F460546B6
:10245000002606E025280BD052460D9990476D1CAA
:10246000761C28780028F5D10FB03046BDE8F08FF3
:102470000024A0460122604900E0044315F8013F12
:10248000203B02FA03F00842F7D128782E2817D112
:1024900015F8010F44F004042A280ED06FF02F0223
:1024A0002878A0F1300109290AD808EB880102EB4D
:1024B000410100EB01086D1CF2E757F8048B6D1C1D
:1024C000287869283ED006DC0028CDD063280BD0C0
:1024D000642804D136E0732810D075284BD05246BA
:1024E0000D999047761C85E017F8040B8DF80000D5
:1024F00000208DF80100E946012003E057F8049B15
:102500004FF0FF3061074FF0000401D40AE0641C73
:1025100044450DDA8442FADB19F804100029F6D19B
:1025200006E0641C8442FCDB19F804100029F8D191
:10253000264404E019F8010B52460D999047641E99
:10254000F8D257E001CF4FF00A0B002802DA4042E0
:102550002D2102E0210504D52B218DF82410012125
:1025600003E0E10705D02021F7E70DF120090891EC
:102570000CE00021F9E701CF4FF00A0BF9E75946CB
:10258000FDF785FE01F1300209F8012D0028F6D192
:10259000ADEB090000F1200B600701D44FF00108FA
:1025A000D84502DDA8EB0B0000E0002080460024A7
:1025B00006E009A85246005D0D999047641C761C00
:1025C00008988442F5DB04E0302052460D9990478C
:1025D000761CB8F10001A8F10108F5DC05E019F856
:1025E000010B52460D999047761CBBF10001ABF1EF
:1025F000010BF4DC6D1C34E7092801000A68531C48
:102600000B601070704710B5262001F051FA01F0F0
:102610005DF80446FDF766FE204610BD70B5054620
:102620000C462F2001F044FA284601F04CFA01F044
:102630004DF8207001F04AF86070BDE87040FDF779
:1026400051BE10B50024272001F032FAFDF74AFEF2
:102650000A20FDF715FF00F060F8102805D120468C
:10266000641CE4B2C828F3D9FA2010BD70B5054641
:10267000232001F01DFA002415F8010B01F023FAC4
:10268000641CE4B2042CF7D3BDE87040FDF72ABE09
:1026900070B50546222001F00BFA002415F8010B55
:1026A00001F011FA641CE4B2042CF7D3BDE87040C9
:1026B000FDF718BE70B50546212001F0F9F9002498
:1026C00015F8010B01F0FFF9641CE4B2062CF7D3F6
:1026D000FDF708FEBDE870406420FDF7D1BE70B57F
:1026E0000546242001F0E4F9002415F8010B01F05F
:1026F000EAF9641CE4B2042CF7D3BDE87040FDF79E
:10270000F1BD10B504463F2001F0D2F9204601F09A
:10271000DAF9BDE81040FDF7E5BD10B52C2001F059
:10272000C7F900F0D3FF0446FDF7DCFD204610BDDD
:1027300070B516460D0004461AD03C2001F0B8F9D9
:10274000204601F0C0F9E8B201F0BDF9280A01F015
:10275000BAF9002406E000BF00F0B8FF641C06F8D8
:10276000010BA4B2AC42F7D3BDE87040FDF7BABD8F
:1027700070BD10B504463B2001F09AF9204601F0E7
:10278000A2F900F0A3FF044600F0A0FF04EB002034
:1027900084B2FDF7A7FD204610BD10B504463020D9
:1027A00001F086F9204601F08EF900F08FFF044613
:1027B000FDF798FD204610BD70B505460024352074
:1027C00001F076F9284601F07EF9FDF78BFD052032
:1027D000FDF756FEFFF7A1FF102805D12046641C27
:1027E000E4B2C828F3D9FA2070BD70B50446154686
:1027F0000E46392001F05CF9204601F064F9E8B298
:1028000001F061F9280A01F05EF9002405E016F8EC
:10281000010B01F058F9641CA4B2AC42F7D3BDE837
:102820007040FDF75FBD70B505460C46312001F0E4
:102830003FF9284601F047F9207801F044F9607823
:1028400001F041F9A07801F03EF9E07801F03BF9A0
:10285000BDE87040FDF746BD70B505460C46322018
:1028600001F026F9284601F02EF9E0B201F02BF92B
:10287000200A01F028F9BDE87040FDF733BD70B5BE
:1028800004460D46342001F013F9204601F01BF9EF
:10289000284601F018F9BDE87040FDF723BD70B57A
:1028A00005460024372001F003F9284601F00BF912
:1028B000FDF718FD0520FDF7E3FDFFF72EFF1028BB
:1028C00005D12046641CE4B2C828F3D9FA2070BDB3
:1028D00013B54FF6FF73012269460248FEF7C8FEA2
:1028E00000981CBDBC030020FDF7ECFEFFF79AFB2F
:1028F000FEF7BEFFFFF742F8FFF764F8FFF77EF838
:1029000006A0FFF75BFD01220A490B48FEF780FE97
:10291000FEF77AFF00F01FF8FEE7000053797374AA
:10292000656D205374617274696E672E2E2E0D0AC8
:1029300000000000010000200404002001460020E7
:10294000842900D0C81C704710B500B9012000F0E0
:10295000CDFB002010BD10B500F014FC002010BD10
:1029600038B5D0E9011204683AB1C3682BB1002030
:102970000090204600F0E7FC38BD2046BDE8384016
:10298000002200F0BFBC7FB50D4604464169B0F996
:10299000080081B1A16971B1FFF7D0FFD4E9051238
:1029A0008DE80700D4E900102B46226900F0F9FEFB
:1029B000039004B070BDFFF7C1FF03A9CDE900018A
:1029C000208A2B4682B2D4E9001000F0BDFE012817
:1029D00001D00020EDE70398EBE700002DE9F0417E
:1029E000184C0F460546E6682068001D00F0B6FA50
:1029F00038B9206890F82C10012088402169814363
:102A00002161681C07D137B12168BDE8F0410E484B
:102A1000091D00F0E7BA20683544B54245602168D9
:102A200005D2A06BBDE8F041091D00F0C3BA606B90
:102A3000091D00F0BFFAA06A854200D2A562BDE878
:102A4000F081000024000020700500202DE9F041F5
:102A5000054600F0D3FA2E4CA068401CA060206808
:102A60002C4F10B1606940B32DE02560A0680128AB
:102A700029D1002606EB860007EB800000F08CFAD7
:102A8000761C072EF6D323488C3000F085FA2148B7
:102A9000A03000F081FA1F48B43000F07DFA1D48E4
:102AA000C83000F079FA1B48DC3000F075FA19489C
:102AB0008C3060631430A06305E02068E96AC06A66
:102AC000884200D82560606A401C6062E96A012083
:102AD000226988401043206101EB810007EB8000F0
:102AE000291D00F07FFA00F0A9FA606900280CD0D7
:102AF0002068E96AC06A884207D207494FF08050CF
:102B00000860BFF34F8FBFF36F8FBDE8F081000007
:102B1000240000209404002004ED00E030B4026C96
:102B20000B46002A0BD0C1681144C1608468A142E1
:102B300001D30168C16030BC1846FDF761BB30BCF1
:102B400070472DE9F041856B174604460026026C5C
:102B500082B1C7B1E068FDF753FBE168206C091A48
:102B6000E1602268914202D2A168081AE060022F57
:102B700016D017E02068A8B9A06800F0B1FE06469C
:102B80000020A0600EE06068FDF73AFB216C6068F1
:102B900008446060A168884204D32068606001E056
:102BA00005B16D1E6D1CA5633046BDE8F08110B502
:102BB000044690F8510058B101280CD002280FD0DB
:102BC000502080F31188BFF34F8FBFF36F8FFEE764
:102BD000206B00F047FA2046BDE8104000F042BAF2
:102BE00010BD000010484FF4A041420706D0C01DA0
:102BF0000D4920F00700411AC1F5A0410B4A0023FE
:102C00000144C2E900030839183A21F007011160B4
:102C10004B600B600B1AC0E9001393604FF000404B
:102C20005360506170470000840500207800002048
:102C3000144E154CA6F1C8074FF08058DFF84C90A1
:102C400012E000BF00F0DAF9F068C568281D00F056
:102C500085F9A068401EA0606068401E606000F0BA
:102C6000EDF92846FFF7A3FF60680028EAD138682D
:102C70000128F9D9C9F80080BFF34F8FBFF36F8FD8
:102C8000F2E700005C0500202400002004ED00E0D5
:102C90000346009829B10260C0E90F31012100F01C
:102CA00085BB0060F8E72DE9F0479A46DDE9098425
:102CB00081466FF00303206B03EB82021044089EF1
:102CC00020F00707780707D0502080F31188BFF362
:102CD0004F8FBFF36F8FFEE7002561B100202318EF
:102CE0000A5C83F834200A5C12B1401C1028F6D329
:102CF00084F8435001E084F83450072E00D30626B0
:102D0000E662C4E91165201D00F051F904F11800D4
:102D100000F04DF92461C6F107006462A061E5642A
:102D200084F8505052464946384600F005F9206074
:102D3000B8F1000F01D0C8F80040BDE8F0870000EE
:102D400030B5114900E011460A688242FBD34B6856
:102D50005C18844203D140681844486008464368C0
:102D60001C18944209D1084C183C2468A24209D08E
:102D700052681A4442600A6812680260814200D0B8
:102D8000086030BD0460F9E77800002010B5044603
:102D900000F034F9A06B28B15FF0000400F04EF9A8
:102DA000204610BD0124F9E70648416B096829B1A6
:102DB000416BC968C9684968816270474FF0FF314B
:102DC000FAE700002400002008484068401C4FF04B
:102DD000500080F3118804D0BFF34F8FBFF36F8F83
:102DE000FEE7BFF34F8FBFF36F8FFEE78000002039
:102DF0002DE9F041044600F001F994F9455004F141
:102E0000240609E0606A48B1304600F0B5FD08B11B
:102E100000F09AF96D1E6DB2002DF3DC4FF0FF3615
:102E200084F8456000F00AF900F0E8F894F944509D
:102E300004F1100709E0206948B1384600F09CFD14
:102E400008B100F081F96D1E6DB2002DF3DC84F83D
:102E50004460BDE8F04100F0F1B800002DE9F04118
:102E60000546002700F0C4F9324E306808B9FFF774
:102E7000B9FE706905424ED1C5B3083568070ED05A
:102E800005F00700C0F108000544680707D050208E
:102E900080F31188BFF34F8FBFF36F8FFEE72DB321
:102EA0007068854237D82348183001460C6801E025
:102EB00020460C466168A94202D221680029F7D158
:102EC00031688C4227D00768216801606068083744
:102ED000411B10290FD96019420708D0502080F3F8
:102EE0001188BFF34F8FBFF36F8FFEE713E0416090
:102EF0006560FFF725FF61687068401A7060B2680E
:102F0000904200D2B060706901430020C4E9000122
:102F1000F068401CF06000F069FD780707D0502091
:102F200080F31188BFF34F8FBFF36F8FFEE73846F2
:102F3000BDE8F0816000002010B5031F4FF08074E1
:102F40001C601B1F21F001011960191F024B0B604F
:102F5000143940380A6010BDC92D0008D0E901328B
:102F600001699A60D0E901235A604A68824201D11E
:102F700082684A60002202610868401E0860086892
:102F800070470000034B036003F154000860802089
:102F9000106070471001002000F108014FF0FF326F
:102FA000C0E90112C1600161002101607047002188
:102FB0000161704730B50B685A1C02D000F108025D
:102FC00002E0026904E02246546825689D42FAD96D
:102FD00053684B6099608A60516008610168491CC0
:102FE000016030BD42684A6093688B6093685960A5
:102FF000916008610168491C01607047502080F3AE
:103000001188BFF34F8FBFF36F8F0A494868401C88
:10301000486001280CD10848006810F0FF0F07D065
:10302000502080F31188BFF34F8FBFF36F8FFEE7FF
:10303000704700008000002004ED00E00849486867
:1030400028B1401E486001D180F31188704750209C
:1030500080F31188BFF34F8FBFF36F8FFEE700003F
:103060008000002070B500282AD0164DA0F1080479
:1030700060686969084207D1502080F31188BFF366
:103080004F8FBFF36F8FFEE722683AB1502080F375
:103090001188BFF34F8FBFF36F8FFEE788436060E7
:1030A00000F0A6F860686968084468602046FFF789
:1030B00047FE2869401C2861BDE8704000F096BCBE
:1030C00070BD0000600000204FF0E0200021016191
:1030D000816105494FF47A720968B1FBF2F1491E2A
:1030E00041610721016170472000002010B50200F6
:1030F00014D00F48006B38B1502080F31188BFF313
:103100004F8FBFF36F8FFEE700F072F8002110467B
:10311000FFF764FC00F06AFC002807D105494FF076
:1031200080500860BFF34F8FBFF36F8F10BD00005A
:103130002400002004ED00E002490A6A0260C96828
:10314000416070472400002001490120C861704798
:103150002400002010B50C4650B109490968183107
:10316000FFF728FF2046BDE810400121FFF736BCDD
:10317000502080F31188BFF34F8FBFF36F8FFEE7AE
:103180002400002010B586B00024039405AA04A9E9
:1031900003A80494FFF7F6FEDDE903010094CDE9EE
:1031A000011000230EA11048059A00F0FAFA0F4909
:1031B0000028C86211D0502080F31188BFF34F8FD0
:1031C000BFF36F8F4FF0FF30886201204861CC6001
:1031D00006B0BDE8104000F041B806B010BD0000D8
:1031E00049444C4500000000312C00082400002018
:1031F0000248016B491C0163704700002400002055
:103200001448016B11B10121C16170470021C161F6
:103210000169B1FA81F1C1F11F0101EB81020E498F
:1032200051F822306BB101EB820101F108034A68C9
:1032300052684A609A4201D152684A60D16801607E
:103240007047502080F31188BFF34F8FBFF36F8F0B
:10325000FEE7000024000020940400201CB526494D
:1032600008780190FF20087008788DF800009DF81C
:1032700000009DF8002000F0F000904207D05020A0
:1032800080F31188BFF34F8FBFF36F8FFEE79DF878
:1032900000001A4C00F0500020700720A06005E0EC
:1032A0009DF8002052008DF80020401E9DF800205F
:1032B0001206F5D4A060032807D0502080F31188AF
:1032C000BFF34F8FBFF36F8FFEE74FF44070A060E6
:1032D000019808700A48016841F4700101600168B2
:1032E00041F070410160FFF7EFFE00206060FCF7E5
:1032F0003BFF00201CBD000000E400E08000002037
:1033000020ED00E0F8B517460E46050013D005FB8A
:1033100006F04830FFF7A2FD04000AD0002084F830
:10332000460004F148023B46314628460094FFF728
:10333000AFFC2046F8BD502080F31188BFF34F8FBB
:10334000BFF36F8FFEE738B5049D18B153B1CAB112
:1033500081B120E0502080F31188BFF34F8FBFF37D
:103360006F8FFEE7502080F31188BFF34F8FBFF3BC
:103370006F8FFEE7502080F31188BFF34F8FBFF3AC
:103380006F8FFEE739B1502080F31188BFF34F8F64
:10339000BFF36F8FFEE748241C46012384F84630B4
:1033A0002B460094FFF774FC204638BD70B50D46DF
:1033B000040025D0FFF722FED4E90F20216802FB8C
:1033C0000011A1600021A163216861600A46D4E96F
:1033D0000F01401E00FB0121E16021464FF0FF304C
:1033E00001F8440F487004F110008DB1FFF7D4FDCF
:1033F00004F12400FFF7D0FDFFF720FE012070BD8F
:10340000502080F31188BFF34F8FBFF36F8FFEE71B
:1034100021690029F0D000F0AFFA0028ECD004496F
:103420004FF080500860BFF34F8FBFF36F8FE3E71B
:1034300004ED00E02DE9FF4782B01D468A464FF0BB
:103440000008040003D0BAF1000F08D011E05020AA
:1034500080F31188BFF34F8FBFF36F8FFEE7206CAF
:1034600038B1502080F31188BFF34F8FBFF36F8FB7
:10347000FEE7022D0AD1E06B012807D0502080F32F
:103480001188BFF34F8FBFF36F8FFEE700F0B4F9E1
:103490003F4F4FF000094FF0805648B9049838B1BB
:1034A000502080F31188BFF34F8FBFF36F8FFEE77B
:1034B000FFF7A4FDA06BE16B884207D3022D05D076
:1034C0000498D0B1B8F1000F1AD01EE02A46514638
:1034D0002046FFF736FB616A19B104F1240000F0C1
:1034E0004BFA20B13E60BFF34F8FBFF36F8FFFF7F2
:1034F000A5FD012006B0BDE8F087FFF79FFD22E0A3
:103500006846FFF719FE4FF00108FFF797FDFFF738
:103510006FFEFFF773FD94F94400401C01D184F85D
:10352000449094F94500401C01D184F84590FFF780
:1035300085FD04A9684600F0CDF830B12046FFF7BC
:1035400057FC00F053FA0020D4E7FFF757FDA06BBB
:10355000E16B884213D1FFF771FD04F1100004996B
:10356000FFF7F8FD2046FFF743FC00F03FFA002884
:103570009ED13E60BFF34F8FBFF36F8F98E7FFF789
:103580005DFD2046FFF734FC00F030FA90E70000C4
:1035900004ED00E02DE9F747002683B08A460400D9
:1035A00003D0BAF1000F08D011E0502080F3118849
:1035B000BFF34F8FBFF36F8FFEE7206C38B1502001
:1035C00080F31188BFF34F8FBFF36F8FFEE700F0DA
:1035D00013F9DFF8F4804FF000094FF0805748B935
:1035E000059838B1502080F31188BFF34F8FBFF397
:1035F0006F8FFEE7FFF702FDA56BC5B15146204670
:10360000FFF78CFA6D1EA563206950B104F110001C
:1036100000F0B2F928B1C8F80070BFF34F8FBFF3C4
:103620006F8FFFF70BFD012006B0BDE8F08705980E
:1036300008B11EB106E0FFF701FD27E06846FFF77D
:103640007BFD0126FFF7FAFCFFF7D2FDFFF7D6FC62
:1036500094F94400401C01D184F8449094F9450049
:10366000401C01D184F84590FFF7E8FC05A96846A5
:1036700000F030F8002820460AD0FFF7B9FB00F030
:10368000B5F92046FFF782FB0028B3D00020CBE736
:10369000FFF77CFB90B104F124000599FFF75AFD78
:1036A0002046FFF7A5FB00F0A1F90028A2D1C8F839
:1036B0000070BFF34F8FBFF36F8F9BE72046FFF77C
:1036C00097FB00F093F995E704ED00E0FF20FEF78B
:1036D00029BA00002DE9F0410C46050011D0C4B113
:1036E000FFF78CFC174BDA686E682068911B471C4B
:1036F00017D02F681B6A9F4219D0964217D8012411
:1037000010E0502080F31188BFF34F8FBFF36F8F0D
:10371000FEE7502080F31188BFF34F8FBFF36F8F08
:10372000FEE70024FFF78AFC2046BDE8F0818842CE
:1037300005D9401A20602846FFF7FEFCF1E700207B
:103740002060DCE7240000202DE9FF5F8346DDE9EF
:103750000E87994616468A469000FFF77FFB0500C4
:103760001CD05420FFF77AFB040014D000202563FE
:1037700084F85100CDE90240CDE900874B4632463E
:1037800051465846FFF78FFA2046FFF75FF90120B0
:1037900004B0BDE8F09F2846FFF764FC4FF0FF300F
:1037A000F6E7F0B585B0DDE90B640A9DA6B1DCB1A2
:1037B000542700972663022684F85160002604AF40
:1037C000CDE90246CDE90057FFF76DFA2046FFF735
:1037D0003DF9049805B0F0BD502080F31188BFF387
:1037E0004F8FBFF36F8FFEE7502080F31188BFF338
:1037F0004F8FBFF36F8FFEE70548416919B1006B2A
:1038000018B1002070470120704702207047000067
:10381000240000202DE9F0412F4C0026206B28B118
:10382000A069401CA0613046BDE8F081E5686D1CD0
:10383000E56013D1606B006838B1502080F31188C7
:10384000BFF34F8FBFF36F8FFEE7606BA16B6163B8
:10385000A063206A401C2062FFF7A6FAA06ADFF886
:103860007C80854209D3606B0068A0B1606BC06842
:10387000C7687868854211D2A0622068C06A00EBF0
:10388000800158F82100012800D90126E0690028AC
:10389000C9D00126C7E74FF0FF30EDE7381DFFF72D
:1038A0005DFBB86A18B107F11800FFF757FBF96A1A
:1038B0000120226988401043206101EB810108EB5F
:1038C0008100391DFFF78EFBF86A2168C96A8842BA
:1038D000C9D30126C7E7000024000020940400207B
:1038E00070B504004FF0000140D0214D286884429B
:1038F00007D0502080F31188BFF34F8FBFF36F8F35
:10390000FEE7A06C38B1401EA064636CE26A9A4284
:103910002CD040B12AE0502080F31188BFF34F8FA4
:10392000BFF36F8FFEE7201DFFF718FB114A01213F
:1039300050B9E06A00EB800352F8233023B92B69B9
:1039400001FA00F083432B61606CE062C0F1070074
:10395000A061E06A2B6981401943296100EB800076
:1039600002EB8000211DFFF73DFB0121084670BDE1
:1039700024000020940400202DE9F041C068C468B0
:10398000ACB104F118000746FFF7E8FA154D286BB3
:103990000126A0B139461448FFF724FBE06A2968E4
:1039A000C96A88421CD90120EE61BDE8F08150202F
:1039B00080F31188BFF34F8FBFF36F8FFEE7201D99
:1039C000FFF7CCFAE16A2A6906FA01F01043286190
:1039D00001EB81000449B43901EB8000211DDBE7D4
:1039E0000020E2E724000020480500202DE9F047F0
:1039F0002C4D00242746286B38B1FFF7FFFA286BBF
:103A0000401E2863286B40B146E0502080F31188A7
:103A1000BFF34F8FBFF36F8FFEE7A968224E0120DF
:103A2000D1B3A6F1B40980463068E8B1F068C46843
:103A300004F11800FFF792FA201DFFF78FFAE06AF1
:103A40002A6908FA00F11143296100EB800109EBB2
:103A50008100211DFFF7C6FAE06A2968C96A884219
:103A6000E2D3C5F81C80DFE70CB1FFF79DF9AC6924
:103A700044B14646FFF7CEFE00B1EE61641EF9D1B7
:103A80000020A861E86938B10849012738070860B3
:103A9000BFF34F8FBFF36F8FFFF7D0FA3846BDE803
:103AA000F0870000240000204805002004ED00E01D
:103AB00010B50446FCF716FCFCF71CFC2046BDE8DC
:103AC0001040FEF72FB8FEF72DB8000004000000EC
:103AD000020000000000000000000000683B000839
:103AE000511B0008000000000000000080000000E2
:103AF0000000000000000000743B00082D1F0008BB
:103B000002000000000000000002000000000000B1
:103B1000000000005C3B0008591B0008000000008A
:103B20000000000000020000000000000000000093
:103B3000010202030405060708090A0B0C0D0E0F0B
:103B4000101000000000000000000102030406073E
:103B50000809000000000102030400005461736BB7
:103B60005F4D51545400000053746172745461737A
:103B70006B0000005461736B5F4D6F64627573007E
:103B8000A03B000800000020900000002424000852
:103B9000303C000890000020F85800003424000851
:103BA0000000000000000000000000000000000015
:103BB00000000000010000001000000000000000F4
:103BC00000127A0000000000000000000000000069
:103BD00000000000000000000000000000000000E5
:103BE00000000000000000000000000000000000D5
:103BF00000000000000000000000000000000000C5
:103C000000000000000000000000000000000000B4
:103C100000000000000000000000000000000000A4
:103C200000000000AAAAAAAA0000000000000000EC
:0400000508000131BD
:00000001FF
