:020000040800F2
:10000000C86D0020DD010008D71900087B17000823
:10001000D51900081B0300086D220008000000002D
:100020000000000000000000000000004501000882
:100030006D0300080000000089010008AD1E0008E3
:10004000F7010008F7010008F7010008F7010008B0
:10005000F7010008F7010008F7010008F7010008A0
:10006000F7010008F7010008F7010008F701000890
:10007000F7010008F7010008F7010008F701000880
:10008000F7010008F7010008F7010008F701000870
:10009000F7010008F7010008F7010008F701000860
:1000A000F7010008391F0008F7010008F7010008F0
:1000B000F7010008F7010008F7010008F701000840
:1000C000F7010008F7010008F7010008F701000830
:1000D000F7010008F7010008F70100086122000895
:1000E000F7010008F7010008F7010008F701000810
:1000F000F7010008F7010008F7010008F701000800
:10010000F7010008F7010008F7010008F7010008EF
:10011000F7010008F7010008F7010008F7010008DF
:10012000F7010008F7010008F7010008F7010008CF
:10013000DFF80CD000F0D0F8004800470D2A000886
:10014000C86D0020224B19680868B0E8F00F80F3F2
:100150000988BFF36F8F4FF0000080F311884EF0D5
:100160000D0E70470000000006480068006880F32C
:10017000088862B661B6BFF34F8FBFF36F8F00DFA1
:1001800000BF00BF08ED00E0EFF30980BFF36F8F01
:100190000F4B1A6820E9F00F106008B54FF05000BF
:1001A00080F31188BFF34F8FBFF36F8F03F048FACE
:1001B0004FF0000080F31188BDE808401968086816
:1001C000B0E8F00F80F30988BFF36F8F704700BF6E
:1001D00068000020EFF30580704700000648804764
:1001E00006480047FEE7FEE7FEE7FEE7FEE7FEE71C
:1001F000FEE7FEE7FEE7FEE7371F000831010008D3
:10020000202A04DB203A21FA02F00021704721FA6B
:1002100002F3D040C2F120029140084319467047D2
:1002200040EA01039B0703D009E008C9121F08C078
:10023000042AFAD203E011F8013B00F8013B521EF8
:10024000F9D27047D2B201E000F8012B491EFBD26F
:1002500070470022F6E710B513460A4604461946D1
:10026000FFF7F0FF204610BD421C10F8011B0029CB
:10027000FBD1801A70472DE9F05F054600209246B9
:100280009B4688460646814640241BE02846414658
:1002900047462246FFF7B4FF53465A46C01A9141DB
:1002A00010D311461846224600F028F82D1A67EBA5
:1002B00001084F4622460120002100F01FF817EBED
:1002C00000094E41201EA4F10104DFDC48463146FE
:1002D0002A464346BDE8F09F064C074D06E0E0681D
:1002E00040F0010394E8070098471034AC42F6D37D
:1002F000FFF722FF7443000894430008202A04DB20
:10030000203A00FA02F1002070479140C2F1200328
:1003100020FA03F3194390407047FEE710B501221D
:100320005102064800F0EEF905480068002803D0A5
:10033000BDE8104002F000BC10BD000000200140EC
:1003400038000020074810B5006818B14FF0FF31A1
:1003500002F01AFCBDE8104000224FF40071024880
:1003600000F0D0B93800002000200140704772B67C
:10037000FEE710B590F821100022022905D00421D3
:10038000816380F82020012010BD01680B6823F0F4
:100390000E030B6001680B6823F001030B6090F8FB
:1003A0004030C46B012101FA03F3636080F821102F
:1003B00080F82020104610BD2DE9F05F90F8211044
:1003C0000024022903D004218163012485E001680F
:1003D0000A6822F00E020A6001680A6822F001022F
:1003E0000A603F4E3E4FB215DFF8F4C0DFF8F090E0
:1003F000DFF8ECA0DFF8E8B0DFF8E4E00168783F70
:1004000013011502ACF1640CA9F15009AAF13C0AE0
:10041000ABF1280BAEF1140E4FF48018B14227D97E
:10042000B9420ED0614512D049451DD0514518D072
:10043000594518D0714501D1424615E0294EB142C7
:1004400001D1012210E0274E1436B14201D1102211
:100450000AE0244E2836B14206D0224A3C3291426C
:1004600001D11A4600E02A461E49091F0A602BE006
:10047000B94213D0614517D0494522D051451DD00E
:1004800059451DD0714501D142461AE0B14202D111
:100490004FF0807215E0134EB14201D1012210E0FD
:1004A000104E1436B14201D110220AE00D4E28360A
:1004B000B14206D00B4A3C32914201D11A4600E0CB
:1004C0002A46074980394A60012180F8211000211D
:1004D00080F82010416B01B188472046BDE8F09FAD
:1004E000800002400804024070B5044600F010F994
:1004F0000546601C02D004480078044400F008F966
:10050000401BA042FAD370BD580000202DE9F84FDF
:10051000DFF8C8910024A9F1040B23460F2709F145
:10052000040AABF1040ED1E00125A54006EA05025C
:10053000AA4276D1DFF8A8C14E68A6EB0C08664542
:100540002BD00DDC032E34D005DC36B3012E19D0B0
:10055000022E2FD11BE0112E16D0122E2AD119E017
:10056000B8F5881F19D006DCB8F5803F15D0B8F56E
:10057000801F1FD111E0B8F5001F0ED0B8F5041F81
:1005800018D10AE0CB6815E0CB681B1D12E0CB68E0
:1005900008330FE0CB680C330CE08B682BB1012BD8
:1005A0004FF0080303D0456104E0042302E0056135
:1005B00000E00023FF2A01D8064601E000F104060E
:1005C0004FEA840501D9A5F12005D6F8008007FA85
:1005D00005FC28EA0C0803FA05F548EA0508C6F800
:1005E00000804D68ED0070D53E4DAE6946F00106C5
:1005F000AE61AD6924F0030605F0010500953A4DA2
:1006000006EB050CDCF80850A607360F07FA06F8CB
:1006100025EA0805DFF8D480404503D14FF00008F3
:1006200025E052E0DFF8C880404502D14FF00108D4
:100630001DE0DFF8C080404502D14FF0020816E00F
:10064000DFF8B480404502D14FF003080FE0DFF837
:10065000AC80404502D14FF0040808E0DFF8A080EC
:10066000404502D14FF0050801E04FF0060808FAB6
:1006700006F848EA0508CCF808804D68D9F800600B
:10068000ED024D4601D5164300E096432E604D68BD
:10069000DAF80060AD02554601D5164300E09643F6
:1006A0002E604D68DBF80060AD035D4601D5164352
:1006B00000E096432E604D68DEF80060ED0375465D
:1006C00001D5164300E096432E60641C0A68164666
:1006D000E2407FF429AFBDE8F88F00000804014034
:1006E000000011100010024000000140000801400D
:1006F000000C0140001001400014014000180140AE
:10070000001C01400AB1016170470904FBE70000C9
:100710000148806870470000580000200248816846
:10072000027811448160704758000020074810B5D6
:10073000016841F010010160032000F095F80F20DE
:1007400000F006F800F03EF8002010BD0020024046
:1007500000B5014687B00022192000F065F8192085
:1007600000F054F81348816941F4006181618069A7
:1007700005A900F400600690684600F01DF900F03D
:100780004BF90D490D4AB0FBF1F10D48491E0260CD
:10079000416040F2E7320021C0E90321816000F0AE
:1007A0008DFC10B1012007B000BD054800F0B4FC7D
:1007B000F9E700000010024040420F00002C014009
:1007C000900400200F4808B5816941F00101816162
:1007D000816901F001010091C16941F08051C1615D
:1007E000C069002200F0805000900F21901E00F0A0
:1007F0001BF80548416821F0E06141F0007141605B
:1008000008BD00000010024000000140002809DB84
:1008100000F01F02012191404009800000F1E0201A
:10082000C0F8001170470000F0B40E4B1B680C4676
:10083000C3F30223C3F10705042D00D90425191DB4
:10084000072901D2002300E0DB1E012606FA05F18C
:10085000491E214099409E40761E16403143F0BC0F
:1008600001F02ABD0CED00E0064900F0070208681F
:100870004FF6FF03184040EA0220034A1043086085
:10088000704700000CED00E00000FA052DE9F0478C
:100890000F46050061D0434E306800F00700B842B3
:1008A00009D2306820F0070038433060306800F02B
:1008B0000700B84251D128683B4C810712D5400748
:1008C00003D5606840F4E06060602878000703D5D5
:1008D000606840F4605060606068A96820F0F000D3
:1008E000084360602878C00728D06868012810D0C5
:1008F0002168022810D0890700292EDA616821F0CA
:10090000030101436160FFF703FF804641F288392C
:100910000DE021688903EFE78901EDE7FFF7F8FEB5
:10092000A0EB0801494502D90320BDE8F0876068C3
:10093000696800F00C00B0EB810FEFD1306800F077
:100940000700B8420BD9306820F007003843306008
:10095000306800F00700B84201D00120E5E72878B0
:10096000400705D56068E96820F4E06008436060EE
:100970002878000706D56068296920F4605040EAAD
:10098000C100606000F058F86168084AC1F30311C3
:10099000515CC8400649086006480068FFF7D8FE69
:1009A0000020C2E70020024000100240D2410008AF
:1009B000640000205C0000200F2202600C4A536893
:1009C00003F003034360536803F0F003836053684C
:1009D00003F4E063C36052684FF4E06303EAD202B9
:1009E00002610448006800F00700086070470000DA
:1009F0000010024000200240044805490068496890
:100A0000044AC1F30221515CC840704764000020D1
:100A100000100240E24100080448054900684968A6
:100A2000044AC1F3C221515CC840704764000020F1
:100A300000100240E24100080E4A51680E4801F0E1
:100A40000C03042B11D0082B0FD10C48C1F38343A6
:100A5000C903C05C0AD55168084AC1F34041921EDF
:100A6000515C054A5043B0FBF1F0704704494843DC
:100A7000704700000010024000127A00C2410008D6
:100A800000093D002DE9F84F040070D02078C04DDA
:100A9000C00749D06868C0F38100012807D06868A2
:100AA000C0F38100022809D16868C00306D5286810
:100AB000800339D560680028E7D035E06068B0F57C
:100AC000803F0BD010B1B0F5A02F11D0286820F4D2
:100AD00080302860286820F4802002E0286840F4F4
:100AE00080302860606890B1FFF712FE06460AE089
:100AF000286840F480202860F0E700BFFFF708FE78
:100B0000801B642873D828688003F7D50CE0FFF7B2
:100B1000FFFD064605E000BFFFF7FAFD801B6428D5
:100B2000F0D828688003F7D420789A4E80074FF0D9
:100B300001094FF0000839D5686810F00C0F07D094
:100B40006868C0F38100022809D16868C00306D430
:100B50002868800714D52069012808D110E0206991
:100B6000B0B1C6F80090FFF7D3FD074605E00AE1F3
:100B7000FFF7CEFDC01B0228C4D828688007F7D530
:100B80002868616920F0F80040EAC10028600DE0A3
:100B9000C6F80080FFF7BCFD074604E0FFF7B8FD8C
:100BA000C01B022823D828688007F7D420780007C4
:100BB0002CD57948A169D9B1C0F80090FFF7A8FDFC
:100BC000074604E0FFF7A4FDC01B02280FD8686A9F
:100BD0008007F7D571484FF4FA510068B0FBF1F087
:100BE000009000BF0098411E0091FAD20EE080E014
:100BF000C0F80080FFF78CFD074604E0FFF788FD92
:100C0000C01B022875D8686A8007F7D4207840078F
:100C100060D5E8690027C00008D4E86940F080503A
:100C2000E861E869012700F0805000905C480168A5
:100C3000C90513D40168834641F480710160FFF750
:100C400067FD824606E000BFFFF762FDA0EB0A00E9
:100C500064284ED8DBF80000C005F5D5E06801280F
:100C60000AD008B1052813D0286A20F001002862B4
:100C7000286A20F0040002E0286A40F0010028629F
:100C8000E06841F2883B98B1FFF742FD82460BE0F5
:100C9000286A40F004002862EEE700BFFFF738FD45
:100CA000A0EB0A0159455AD8286A8007F6D50CE00E
:100CB000FFF72EFD824605E0FFF72AFDA0EB0A01B3
:100CC00059454CD8286A8007F6D41FB1E86920F04E
:100CD0008050E861E06988B36968C1F38101022945
:100CE00044D00228C6F8608004D0FFF711FD044606
:100CF00038E034E0FFF70CFD074604E0FFF708FD9D
:100D0000C01B02282BD828688001F7D4206AB0F5D0
:100D1000803F05D16868A16820F40030084368600E
:100D2000D4E908010843696821F474110843686034
:100D3000C6F86090FFF7ECFC044606E025E000BF33
:100D4000FFF7E6FC001B022809D828688001F7D5C8
:100D50001BE000BFFFF7DCFC001B022802D90320C8
:100D6000BDE8F88F28688001F4D40EE00128F7D0A0
:100D70006868226A00F48031914204D1616A00F40B
:100D80007010884201D00120EAE70020E8E7000067
:100D900000100240000042428004424264000020F1
:100DA0000070004070B5040009D0606A002540B1B1
:100DB00025616561A56294F8510040B10CE0012005
:100DC00070BD6068B0F5827FF4D0E561F2E784F829
:100DD0005050204600F040F8022084F8510020686E
:100DE000016821F040010160A088218900F482702F
:100DF00001F404410843A18901F400610843217C06
:100E000001F002010843217D01F001010843218B1B
:100E100001F400710843217F01F03801084394F880
:100E2000201001F080010843218D01F40051084396
:100E300021680860A069042101EA10402168486027
:100E40002068C16921F40061C1616565012084F8F1
:100E50005100002070BD000030B585B00024009422
:100E600001940294039400681449884223D11448E1
:100E7000816941F480518161816901F4805104915B
:100E8000816941F00401816180690E4D00F0040028
:100E90000490A02000900220019003200390694656
:100EA0002846FFF733FB4020CDE900046946284679
:100EB0000294FFF72BFB05B030BD0000003001406D
:100EC00000100240000801402DE9FF4F81B01D468F
:100ED000934604464FF001090E9EFFF719FC0746A2
:100EE00094F851006168012806D0B1F5827F3CD1A9
:100EF000A168C9BB042838D10298002871D0BBF181
:100F0000000FFBD0002DF9D094F8500001282CD010
:100F10004FF0010A84F850A094F85100042802D040
:100F2000052084F851004FF00008C4F85480C4F83C
:100F300038B0E587A58702992163E586A586C4F8C0
:100F40004080C4F8448020680168490603D40168E1
:100F500041F040010160E068B0F5006F606808D0C2
:100F6000F0B3012D49D081E0FFE7022005B0BDE8D4
:100F7000F08F08B1012D39D1206B21680088C8603D
:100F8000206B801C2063E08E401EE0862EE02068EF
:100F9000816889070FD5E18E69B1B9F1010F0AD1D6
:100FA000216B0988C160206B801C2063E08E401E8D
:100FB000E0864FF0000920688168C9070CD0E18FF6
:100FC00051B1C068A16B0880A06B801CA063E08F4A
:100FD000401EE0874FF00109FFF79AFBC01B01E0BC
:100FE0000BE067E0B04201D3701C50D1E08E0028C6
:100FF000CDD1E08F0028CAD13EE0206B2168007877
:101000000873206B401C2063E08E401EE0862DE0BC
:101010002068816889070FD5E18E69B1B9F1010FA8
:101020000AD1216B09780173206B401C2063E08E8C
:10103000401EE0864FF0000920688168C9070CD087
:10104000E18F51B1C068A16B0870A06B401CA06318
:10105000E08F401EE0874FF00109FFF759FBC01BEE
:10106000B04202D3701C01D011E086B1E08E00289E
:10107000CED1E08F0028CBD13A463146204600F051
:10108000ABFC50B12020606584F8508012E084F8F9
:1010900051A084F85080032068E7A06818B9206840
:1010A000C1688068009084F851A084F85080606D19
:1010B0000028F1D0012059E77047704710B50400AF
:1010C00003D094F83D0010B107E0012010BD0020CE
:1010D00084F83C00204600F01EF8022084F83D0011
:1010E000211D206800F02EFF012084F8460084F8BE
:1010F0003E0084F83F0084F8400084F8410084F802
:10110000420084F8430084F8440084F8450084F8E1
:101110003D00002010BD704790F83D10012901D01E
:1011200001207047022180F83D100168CA6842F032
:101130000102CA6000680E4988420ED00D498842FB
:101140000BD0B0F1804F08D00B49884205D00B4935
:10115000884202D00A49884204D1816801F007011F
:10116000062903D0016841F00101016000207047A9
:10117000002C014000340140000400400008004001
:10118000000C004070472DE9F04104460068C66835
:1011900005694FF00007A90713D5B10711D5F91E4E
:1011A000016101202077206880698007204602D0F5
:1011B000FFF7E8FF04E000F07EF8204600F07CF83E
:1011C0002777680716D5700714D521686FF00400DB
:1011D0000861022020772068806910F4407F204653
:1011E00002D0FFF7CFFF04E000F065F8204600F0E2
:1011F00063F82777280715D5300713D521686FF0D6
:1012000008000861042020772068C0698007204614
:1012100002D0FFF7B7FF04E000F04DF8204600F0E1
:101220004BF82777E80616D5F00614D521686FF03D
:1012300010000861082020772068C06910F4407F02
:10124000204602D0FFF79EFF04E000F034F820466D
:1012500000F032F82777E80708D0F00706D02168B9
:101260006FF001000861204600F028F8280608D534
:10127000300606D521686FF0800008612046FFF730
:101280001BFF680608D5700606D521686FF0400080
:101290000861204600F01CF8A8060AD5B00608D55B
:1012A00021686FF0200008612046BDE8F041FFF79B
:1012B00004BFBDE8F0817047704700000068034933
:1012C000884201D1FFF72ABA70470000002C014084
:1012D0007047704770470000F8B501680446086819
:1012E000CA684B6910F00F0F4FF0000559D003F09A
:1012F000010602F49077374365D0C10705D0D105C8
:1013000003D5616C41F001016164410705D5D9073E
:1013100003D0616C41F002016164810705D5D907F2
:1013200003D0616C41F004016164010707D502F04C
:101330002001314303D0616C41F008016164616CAC
:1013400000293AD0800604D5900602D5204600F048
:1013500076FE20684069616CC0F38010090700D4F4
:1013600060B3204600F044FE20684069400621D565
:101370002068143050E8001F21F0400140E80012BE
:10138000002AF5D1E06BA8B16D494163E06BFFF72E
:1013900013F8002811D0E06B416B01B0BDE8F040BC
:1013A000084783060FD593060DD52046BDE8F840C3
:1013B00000F045BE2046FFF78DFFF8BD2046FFF741
:1013C00089FF6564F8BD266B2023012E7CD1C606FB
:1013D0007AD5D60678D508684868009048694FF0F5
:1013E0000206400640D5E16B086840680004000C26
:1013F000E8D0A28D8242E5D9E085886920282DD0E9
:1014000020680C3050E8001F21F4807140E8001281
:10141000002AF5D12068143050E8001F21F00101A6
:1014200040E80012002AF5D12068143050E8001F6F
:1014300021F0400140E80012002AF5D184F8423042
:10144000256320680C3050E8001F21F0100140E8AF
:101450000012002AF5D1E06BFEF78BFF6663A08DCA
:10146000E18D401A81B22AE0A08DE18D401A81B24F
:10147000E08D0028A6D00029A4D022680C3252E8C2
:10148000000F20F4907042E80007002FF5D120688B
:10149000143050E8002F22F0010240E80027002F0E
:1014A000F5D184F84230256320680C3050E8002FD5
:1014B00022F0100240E80023002BF5D1666320469D
:1014C000FFF707FFF8BDFFE705062BD5150629D561
:1014D00094F841002128F5D1A068B0F5805F01D1D2
:1014E0002069B0B1206A411C2162216800784860FF
:1014F000E08C401E0004000CE084E3D12068C16849
:1015000021F08001C1602068C16841F04001C160E4
:10151000D8E7206A0088C0F308004860206A801C71
:101520002062E5E74006CDD55006CBD5CA682046F7
:1015300022F04002CA6084F8413000F01DF9C1E792
:10154000E11F000870B5040004D094F841000025A4
:1015500010B106E0012070BD84F84050204600F034
:1015600023F8242084F841002068C16821F4005148
:10157000C160204600F0C4FD2068016921F490415B
:1015800001612068416921F02A0141612068C16838
:1015900041F40051C1606564202084F8410084F862
:1015A00042006563002070BD70B586B000240094D1
:1015B00001940294039403682B482A4E02210322CB
:1015C0000515B34221D1836943F480438361836964
:1015D00003F480430493836943F0040383618069C7
:1015E000224E00F0040004900802CDE900010392AD
:1015F00069463046FEF78AFFCDE900546946304619
:101600000294FEF783FF06B070BD194EB342FAD1C3
:10161000C36943F48023C361C36903F48023049343
:10162000836943F0080383618069CDE9005100F0CC
:101630000800CDE903200F4D69462846FEF766FFF6
:10164000E814CDE90004694628460294FEF75EFFDF
:10165000002205212720FFF7E7F82720FFF7D6F81B
:10166000D1E70000003801400010024000080140AE
:1016700000480040000C014090F84230202B01D07F
:101680000220704721B11AB10023036300F094BD1A
:101690000120704700680C49884213D10B480C4B5D
:1016A0000278401E41885A54491C89B2418007295A
:1016B00003D3012101700021418001220349054823
:1016C000FFF7DABF7047000000480040010000202B
:1016D000D4000020480400202DE9F843044690F887
:1016E0004100984616460D46202802D00220BDE84B
:1016F000F88385B17EB100206064212084F8410028
:10170000FFF706F8A6848146E684A0682027B0F596
:10171000805F02D003E00120E9E7206910B12E4686
:1017200000250EE000260CE08021204600F05FFD41
:10173000A8B9C6B116F8010B21684860E08C401EBC
:10174000E084E08C4B464FF00002CDF8008000288A
:10175000EAD14FF04001204600F049FD40B184F845
:1017600041700320C3E735F8020BC0F30800E3E73C
:1017700084F841700020BAE77047FEE710B5A2B0C8
:1017800000202090219020A801F0CDF91D491E4B8A
:101790001CAC08600FCB84E80F0000211CA801F0EE
:1017A000AFF91A4C18491C22A06110316846FEF7A7
:1017B00037FD0021684601F019FA1349A0601C2288
:1017C0002C3107A8FEF72CFD002107A801F00EFA26
:1017D0000D49E0601C2248310EA8FEF721FD0021D2
:1017E0000EA801F003FA084920611C22643115A8F3
:1017F000FEF716FD002115A801F0F8F9606122B08E
:1018000010BD000038000020404100083C000020CE
:101810002DE9F04F85B000243B48009401940294D8
:101820000394816941F040018161816901F04001C7
:101830000491816941F004018161816901F0040131
:101840000491816941F008018161816901F0080119
:101850000491816941F480718161816901F4807131
:101860000491816941F0200181618069DFF89C90D9
:1018700000F020000490002220214846FEF742FF9D
:10188000DFF88CA0002280215046FEF73BFFDFF8F6
:1018900084B04FF40078012241465846FEF732FFEB
:1018A000002220211C48FEF72DFF202702260125BB
:1018B00000970396CDE9015469464846FEF726FE97
:1018C00040208DE8310069465846FEF71FFE802013
:1018D000CDE90005CDE9024669465046FEF716FE01
:1018E000CDF800800396CDE9015469465846FEF7CD
:1018F0000DFE00970396CDE9015469460648FEF7B0
:1019000005FE05B0BDE8F08F001002400018014050
:101910000014014000200140000C0140104810B5A7
:101920000E4901604FF48271416000218160C16005
:101930004FF400720161C0E905121822C0E90721C5
:10194000416281620A21C162FFF72CFA002803D0AC
:10195000BDE81040FEF70BBD10BD00000030014097
:10196000A80300200C4810B50A4901604FF4E1318A
:101970004160002181600C22C160C0E904128161D4
:10198000C161FFF7DFFD002803D0BDE81040FEF77E
:10199000EEBC10BD00380140000400200C4810B51A
:1019A0000A4901604FF416514160002181600C2208
:1019B000C160C0E904128161C161FFF7C3FD002865
:1019C00003D0BDE81040FEF7D2BC10BD0048004077
:1019D00048040020FEE7FEE7F8B515460E460B4624
:1019E000009204460122022100F010F840B933466B
:1019F000002280212046009500F008F8002804D03D
:101A0000606D40F0200060650320F8BD2DE9F843CB
:101A10001E46914688460446089DFEF779FE401B07
:101A2000351AFEF775FE074625480068C0F3CB302F
:101A3000684338E0701C37D0FEF76AFEC01BA8422E
:101A400003D215B1009860B32CE02068416821F002
:101A5000E00141606068B0F5827F0BD1A068B0F50D
:101A6000004F02D0B0F5806F04D12068016821F0EA
:101A700040010160A06AB0F5005F09D120680168EB
:101A800021F4005101602068016841F400510160B7
:101A9000012084F85100002084F850000320BDE8A4
:101AA000F8830025401E00902068816838EA010014
:101AB00004D000214945BDD10020F0E70121F9E71C
:101AC0006400002001B582B000208DF804000A20D7
:101AD0000090012301AA02A90248FFF7F5F99DF839
:101AE00004000EBDA8030020012000F0FDFFFBE76D
:101AF000F0B5454C89B0A06940F08000A061A069B4
:101B0000002500F080000790C02000900120CDE962
:101B100002053E4E019069463046FEF7F7FC012271
:101B2000C0213046FEF7EEFD394F012280213846B4
:101B3000FEF7E8FD322000F0D7FF00228021384672
:101B4000FEF7E0FDC82000F0CFFFA06940F00100E3
:101B5000A061A06900F0010007902E48416821F0C3
:101B6000010141F0E06141602C492B4808600D61A2
:101B70004FF482704D6148602820C8610846FFF725
:101B800011F90122C0213046FEF7BCFDFEF7DAFB59
:101B90000620FFF797FF5520FFF794FFC4B2FEF72A
:101BA000BDFBAA2C1ED01EA122461FA000F060FB88
:101BB00028A029A100680690D1E90001CDE904011F
:101BC00000F007FEC82000F08FFF04A800F028FEF8
:101BD00006A800F013FE012000F037FE20A000F060
:101BE00047FB04E027A1DFE7C82000F07DFF00F0FD
:101BF000D2FD0128F8D124A000F03AFB002001F02A
:101C0000B9FC09B0F0BD000000100240001C01400A
:101C1000001401400000014000300140A8030020F2
:101C20004641494C000000005B434845434B5D2062
:101C300053504920436F6E6E656374696F6E3A202E
:101C400025732028526561643A2030782530325857
:101C5000290D0A00C0A87BC800AABBCCDD980000F3
:101C60005B53595354454D5D2057616974696E67E4
:101C700020666F7220504859204C696E6B2E2E2EB4
:101C80000D0A00004F4B00005B53595354454D5D06
:101C9000204C696E6B2055502120506F7274732058
:101CA00073686F756C6420626520676C6F77696E0E
:101CB00067206E6F772E0D0A00000000012000F0F3
:101CC00013FFFBE7ADF5816D3DA000F0D1FA40F6C2
:101CD000B83000F009FF002000F003FE43A000F040
:101CE000C7FA0321002000F055FE41F69071002054
:101CF00000F03DFE002000F003FE002000F05AFE40
:101D0000642000F0F1FE0DF20441002000F04EFDD1
:101D10009DF805143FA000F0ABFA4A4D002000F0FA
:101D2000E0FD0DF20441002000F040FD9DF8051497
:101D30002878814205D044A000F09AFA9DF8050465
:101D400028709DF80504042835D1002000F0B5FD69
:101D5000040030D0014644A000F08AFA01AA2146CE
:101D6000002000F089FD01A90020085544A000F0E2
:101D70007FFA4848009012380246038A81A86968B1
:101D800000F086FA81A8FEF76FFA82B281A90020DE
:101D900000F0CFFD642000F0A7FE3FA000F068FA3D
:101DA000002000F0DFFC002000F0AAFD002000F081
:101DB00001FEFF202870322000F096FEAEE7000002
:101DC0005B5745425D205461736B2053746172749C
:101DD00065642E2057616974696E6720666F722092
:101DE000496E69742E2E2E0D0A0000005B57454285
:101DF0005D20496E697420536F636B6574203020D9
:101E000028506F72742038303830292E2E2E0D0A4B
:101E1000000000005B5745425D20496E6974204414
:101E20006F6E652E205374617475733A2030782577
:101E3000303258202845787065637420307830310E
:101E4000290D0A003C0000205B5745425D20536F7E
:101E5000636B6574205374617475733A2030782510
:101E60003032580D0A0000005B5745425D20526534
:101E700063762025642042797465730D0A000000A2
:101E80005B5745425D20436F6E74656E743A202542
:101E9000730D0A00160000205B5745425D20436C1D
:101EA0006F73696E672E2E2E0D0A000010B550203C
:101EB00080F31188BFF34F8FBFF36F8F01F09EFF48
:101EC00018B104494FF080500860002080F3118859
:101ED00010BD000004ED00E030B58FB02821684649
:101EE000FEF7B7F914210AA8FEF7B3F90121080497
:101EF000CDE900100024029402250491CDE9075099
:101F00004FF4E01009906846FEF7BCFD08B172B6C8
:101F1000FEE70F20CDE90A054FF48060CDE90C40C3
:101F200002210AA80E94FEF7B1FC002801D072B677
:101F3000FEE70FB030BD70470148FFF724B900003D
:101F400090040020F0B50268204C214D214E224F14
:101F5000224B4FF0804CA04209D0984207D06045F8
:101F600005D0A84203D0B04201D0B84204D122F03B
:101F7000700E4A6842EA0E02A04209D0984207D089
:101F8000604505D0A84203D0B04201D0B84203D189
:101F900022F44075CA682A434D6922F080022A4320
:101FA00002608A68C2620A688262A04201D09842D6
:101FB00001D109690163012141610169C90703D0A8
:101FC000016921F001010161F0BD0000002C014018
:101FD0000004004000080040000C004000340140B4
:101FE00010B5406A0021C185C184FFF773F910BDA7
:101FF00001680C3151E8002F22F4907241E800236F
:10200000002BF5D10168143151E8002F22F00102B4
:1020100041E80023002BF5D1016B012909D10168AA
:102020000C3151E8002F22F0100241E80023002B70
:10203000F5D1202180F8421000210163704708B5D6
:1020400090F84210222901D0022008BD82684FF486
:1020500080539A4201D1016921B1816A9A421BD011
:102060004AB10AE00268816A5268C2F308020A8033
:10207000816A891C08E0026972B10268526802F044
:102080007F020A70816A491C8162C18D491E090460
:10209000090CC18503D01BE002685268F1E70168B2
:1020A000CA6822F02002CA600168CA6822F48072FD
:1020B000CA6001684A6922F001024A61202180F861
:1020C000421000214163026B012A03D0FFF7E2FABC
:1020D000002008BD016301680C3151E8002F22F097
:1020E000100241E80023002BF5D101680A68D206EE
:1020F00002D50A6849680091818DFFF7EAF8E7E7A1
:1021000070B5044600680169E26821F4405111434A
:1021100001612169A0680843616908432168CA68B0
:1021200041F20C639A430243CA6020684169A26984
:1021300021F44071114341611E492068884202D157
:10214000FEF76AFC01E0FEF757FC00EBC00101EB73
:102150000012606864218000B2FBF0F3B3FBF1F37E
:102160006FF018067343B2FBF0F5B2FBF0F605EB27
:102170008305322303EB0515B5FBF1F5B6FBF1F64C
:1021800005F0F00505EB0615B2FBF0F6B2FBF0F03A
:10219000B0FBF1F06FF01802504306EB800003EB48
:1021A0000010B0FBF1F0216800F00F0028448860B7
:1021B00070BD00000038014081628285C285002127
:1021C0004164222180F84210016921B10168CA6886
:1021D00042F48072CA6001684A6942F001024A61B1
:1021E0000068C16841F02001C160002070472DE9FE
:1021F000F843984617460D460446089E24E0701C96
:1022000022D0FEF785FAA0EB0800B0421AD8CEB172
:102210002068C168490717D5802D15D0402D13D0EF
:102220000168C94309070FD4016800254068009080
:102230002046FFF7DDFE0820606484F8405001204E
:10224000BDE8F8830320FBE72068006835EA00005A
:1022500004D00020B842D2D00020F1E70120F9E7F5
:102260000148FFF739B8000048040020FEE70000ED
:102270000FB4054B10B503A9044A029800F03CF8CE
:1022800010BC5DF814FB0000E9290008D000002014
:102290000FB4084B10B504A902AA039800F02CF85B
:1022A000044602A9002000F058FA204610BC5DF850
:1022B00014FB00005B2700080907090E002804DB57
:1022C00000F1E02080F80014704700F00F0000F1EA
:1022D000E02080F8141D704702E008C8121F08C1F2
:1022E000002AFAD170477047002001E001C1121F97
:1022F000002AFBD1704700002DE9FF4F8DB00F463B
:102300000546002606E025280BD0DDE90F12904790
:102310006D1C761C28780028F5D111B03046BDE838
:10232000F08F0024A246A1460122EC4900E00443BC
:1023300015F8013F203B02FA03F00842F7D1287854
:102340002A2810D06FF02F022878A0F13001092937
:1023500014D80AEB8A0102EB410144F0020400EBBD
:10236000010A6D1CF0E701CF5FEA000A03D544F4CF
:102370000054CAF1000A44F002046D1C28782E288B
:1023800017D115F8010F44F004042A280ED06FF07D
:102390002F022878A0F1300109290AD809EB890118
:1023A00002EB410100EB01096D1CF2E757F8049BB9
:1023B0006D1C28786C280FD006DC4C2817D06828B4
:1023C0000DD06A2814D104E0742810D07A280FD1D7
:1023D0000DE044F400140AE044F4801401E044F4F5
:1023E00040146978814202D104F580146D1C6D1C83
:1023F0002A786E2A1FD00CDC632A31D004DC002A34
:102400008BD0582A11D1A3E0642A68D0692A0CD154
:1024100065E0732A2ED004DC6F2A73D0702A04D1B1
:102420009BE0752A6FD0782A6ED01046DDE90F1236
:102430009047761C50E1C4F30250022806D00328CE
:1024400009D0042801CF09D0066045E101CFF1177A
:10245000C0E9006140E101CF06803DE106703BE14B
:1024600017F8040B8DF8000000208DF80100EB46F2
:10247000012003E057F804BB4FF0FF3061074FF035
:10248000000102D40DE008F10101884649450FDA48
:102490008045F8DB1BF808100029F4D108E008F1AA
:1024A000010188468142FADB1BF808100029F6D1A9
:1024B000DDE90F23AAEB08008146214600F036F93A
:1024C000304400EB080604E0DDE90F121BF8010BB5
:1024D0009047B8F10108F7D221464846F7E00A21B3
:1024E000C4F302534FF0000B0891022B04D001CF2C
:1024F000C117032B09D00AE0FF1D27F00707F7E8F3
:10250000020108E032E01FE020E000B2C117042B16
:1025100001D140B2C117031E71F1000307DA4FF079
:10252000000CD0EB0C006CEB01012D2302E0230525
:1025300004D52B238DF82430012303E0E30701D0D9
:102540002023F7E7984658E00A2110E010210EE01A
:1025500010204FF0000B08900CE010214FF0000B02
:1025600044F004044FF00809089103E008214FF0FB
:10257000000B0891C4F30253022B04D001CF0021B9
:10258000032B06D006E0FF1D27F00707F7E802013E
:1025900003E080B2042B00D1C0B24FF00008230743
:1025A0002BD5702A07D0DDF820C08CF0100C5CEA27
:1025B0000B0C05D00EE040238DF82430012308E0F9
:1025C00050EA010306D030238DF824308DF8252001
:1025D00002239846DDF820C08CF0080C5CEA0B0C56
:1025E0000BD150EA010301D1630706D530238DF8E2
:1025F00024304FF00108A9F10109582A04D038A26B
:102600000B9208AA0A920BE03AA2F9E75B46089AF5
:10261000FDF731FE0B9B9B5C0A9A521E0A921370C7
:1026200050EA0102F2D10A98ADEB000000F1200B54
:10263000600702D524F4803401E04FF00109D94548
:1026400002DDA9EB0B0000E0002000EB0B01414490
:102650000890AAEB010AE00306D4DDE90F23214626
:10266000504600F063F806444FF0000908E009A95D
:1026700011F80900DDE90F12904709F10109761CF4
:10268000C145F4DBE0030CD5DDE90F2321465046BC
:1026900000F04CF8064404E0DDE90F1230209047CA
:1026A000761C0899481E08900029F5DC08E00A9875
:1026B0000A990078491C0A91DDE90F129047761CAF
:1026C000BBF10001ABF1010BF1DC21465046DDE925
:1026D0000F2300F019F806446D1C1BE609280100C1
:1026E0003031323334353637383961626364656688
:1026F000000000003031323334353637383941424A
:1027000043444546000000002DE9F0410446002501
:102710001E461746880404D405E039462020B047F9
:102720006D1C641EF9D52846BDE8F0812DE9F04105
:10273000044600251E469046C80301D5302700E018
:102740002027880404D505E041463846B0476D1C73
:10275000641EF9D52846BDE8F0810A68531C0B6059
:102760001070704770B5054600243D2001F0DAFC7A
:10277000284601F0E2FCFDF7D1FD0520FDF7B4FE8F
:1027800000F06FF8102805D12046641CE4B2C82878
:10279000F3D9FA2070BD10B5262001F0C3FC01F07A
:1027A00089FA0446FDF7BAFD204610BD70B505460E
:1027B0000C462F2001F0B6FC284601F0BEFC01F0CB
:1027C00079FA207001F076FA6070BDE87040FDF78C
:1027D000A5BD10B50024272001F0A4FCFDF79EFD47
:1027E0000A20FDF781FE00F03CF8102805D12046B4
:1027F000641CE4B2C828F3D9FA2010BD70B50546B0
:10280000222001F08FFC002415F8010B01F095FC4B
:10281000641CE4B2042CF7D3BDE87040FDF77EBD24
:1028200070B50546212001F07DFC002415F8010B50
:1028300001F083FC641CE4B2062CF7D3FDF76EFDB7
:10284000BDE870406420FDF74FBE10B504463F2040
:1028500001F068FC204601F070FCBDE81040FDF777
:102860005DBD10B52C2001F05DFC01F023FA04469B
:10287000FDF754FD204610BD70B516460D00044608
:102880001AD03C2001F04EFC204601F056FCE8B284
:1028900001F053FC280A01F050FC002406E000BFC0
:1028A00001F008FA641C06F8010BA4B2AC42F7D39D
:1028B000BDE87040FDF732BD70BD10B504463B2049
:1028C00001F030FC204601F038FC01F0F3F9044639
:1028D00001F0F0F904EB002084B2FDF71FFD204663
:1028E00010BD10B50446302001F01CFC204601F05C
:1028F00024FC01F0DFF90446FDF710FD204610BD71
:1029000070B505460024352001F00CFC284601F086
:1029100014FCFDF703FD0520FDF7E6FDFFF7A1FF21
:10292000102805D12046641CE4B2C828F3D9FA2047
:1029300070BD70B5044615460E46392001F0F2FB15
:10294000204601F0FAFBE8B201F0F7FB280A01F09B
:10295000F4FB002405E016F8010B01F0EEFB641C0B
:10296000A4B2AC42F7D3BDE87040FDF7D7BC70B558
:1029700005460C46122001F0D5FB284601F0DDFB90
:10298000E0B201F0DAFB200A01F0D7FBBDE87040AD
:10299000FDF7C4BC70B504460D46342001F0C2FBFF
:1029A000204601F0CAFB284601F0C7FBBDE8704095
:1029B000FDF7B4BC70B505460024362001F0B2FB2B
:1029C000284601F0BAFBFDF7A9FC0520FDF78CFDB8
:1029D000FFF747FF102805D12046641CE4B2C82841
:1029E000F3D9FA2070BD000013B54FF6FF73012232
:1029F00069460248FEF770FE00981CBD00040020E6
:102A0000EFF30580002800D00120704786B0FDF765
:102A10008DFEFFF761FAFEF7FBFEFEF77FFFFEF784
:102A2000A1FFFEF7BBFF17A0FFF722FC1B4881693F
:102A300041F0800181618069194C00F080000490B0
:102A4000C02000900120019002900320039069466D
:102A50002046FDF75BFD012240212046FDF752FE96
:102A6000012280212046FDF74DFE0EA0FFF700FC5D
:102A7000012218491848FEF7FFFDFEF77FFE00F01F
:102A80003AF8FEE753797374656D2053746172747C
:102A9000696E672E2E2E0D0A000000000010024005
:102AA000001C014056533130353320446973616254
:102AB0006C6564202843532F44435320486967685A
:102AC000292E205350493120697320636C65616E53
:102AD0002E0D0A00010000204804002001460020BD
:102AE000842900D0C81C704710B500B9012000F03F
:102AF0006FFC002010BD10B500F006FD002010BDD9
:102B000038B5D0E9011204683AB1C3682BB100208E
:102B10000090204600F04FFE38BD2046BDE838400A
:102B2000002200F027BE41684FF0010009B100F01B
:102B300014BE00F007BE000038B50024054600941E
:102B4000FFF75EFF90B16946284600F05BFF012861
:102B500001D0FF2038BD009888B10A494FF080505D
:102B60000860BFF34F8FBFF36F8F08E000231A4652
:102B70001946284600F096FE012800D0FF24204682
:102B800038BD000004ED00E038B505004FF000004E
:102B900000900FD00024481C0ED001B10C46FFF766
:102BA0002FFFB8B16A460021284600F079FF0128BE
:102BB00016D104E0802038BD4FF0FF34EFE70098D5
:102BC00080B109494FF080500860BFF34F8FBFF3C9
:102BD0006F8F07E02146284600F0B0FF012801D0A2
:102BE000FF2038BD002038BD04ED00E07FB50D4664
:102BF00004464169B0F9080081B1A16971B1FFF7DC
:102C00006DFFD4E905128DE80700D4E900102B46CA
:102C1000226901F0BAF8039004B070BDFFF75EFFBF
:102C200003A9CDE90001208A2B4682B2D4E9001025
:102C300001F07EF8012801D00020EDE70398EBE7D2
:102C40002DE9F041184C0F460546E6682068001D46
:102C500000F0CCFA38B9206890F82C100120884098
:102C6000216981432161681C07D137B12168BDE822
:102C7000F0410E48091D00F0FDBA20683544B54208
:102C80004560216805D2A06BBDE8F041091D00F048
:102C9000D9BA606B091D00F0D5FAA06A854200D24E
:102CA000A562BDE8F081000068000020B4050020A6
:102CB0002DE9F041054600F0E9FA2E4CA068401CD1
:102CC000A06020682C4F10B1606940B32DE02560F2
:102CD000A068012829D1002606EB860007EB8000BA
:102CE00000F0A2FA761C072EF6D323488C3000F0B1
:102CF0009BFA2148A03000F097FA1F48B43000F04A
:102D000093FA1D48C83000F08FFA1B48DC3000F001
:102D10008BFA19488C3060631430A06305E020689A
:102D2000E96AC06A884200D82560606A401C606217
:102D3000E96A0120226988401043206101EB81008B
:102D400007EB8000291D00F095FA00F0BFFA6069DA
:102D500000280CD02068E96AC06A884207D2074977
:102D60004FF080500860BFF34F8FBFF36F8FBDE807
:102D7000F081000068000020D804002004ED00E08D
:102D800030B4026C0B46002A0BD0C1681144C160FC
:102D90008468A14201D30168C16030BC1846FDF7C8
:102DA0003FBA30BC70472DE9F041856B17460446A9
:102DB0000026026C82B1C7B1E068FDF731FAE16824
:102DC000206C091AE1602268914202D2A168081AB7
:102DD000E060022F16D017E02068A8B9A06801F0C3
:102DE00073F806460020A0600EE06068FDF718FA50
:102DF000216C606808446060A168884204D3206840
:102E0000606001E005B16D1E6D1CA5633046BDE834
:102E1000F08110B5044690F8510058B101280CD04B
:102E200002280FD0502080F31188BFF34F8FBFF3DB
:102E30006F8FFEE7206B00F05DFA2046BDE8104082
:102E400000F058BA10BD000010484FF4C8414207C6
:102E500006D0C01D0D4920F00700411AC1F5C84138
:102E60000B4A00230144C2E900030839183A21F053
:102E7000070111604B600B600B1AC0E900139360EF
:102E80004FF000405360506170470000C8050020BB
:102E9000BC000020144E154CA6F1C8074FF0805816
:102EA000DFF84C9012E000BF00F0F0F9F068C56860
:102EB000281D00F09BF9A068401EA0606068401EBD
:102EC000606000F003FA2846FFF7A3FF606800285F
:102ED000EAD138680128F9D9C9F80080BFF34F8FCB
:102EE000BFF36F8FF2E70000A0050020680000200C
:102EF00004ED00E0002807D00021816001600B464E
:102F00000A46C16000F0CEBC70470346009829B164
:102F10000260C0E90F31012100F080BC0060F8E7D9
:102F20002DE9F0479A46DDE9098481466FF00303F5
:102F3000206B03EB82021044089E20F007077807FD
:102F400007D0502080F31188BFF34F8FBFF36F8FEE
:102F5000FEE7002561B1002023180A5C83F83420C5
:102F60000A5C12B1401C1028F6D384F8435001E0EB
:102F700084F83450072E00D30626E662C4E91165B2
:102F8000201D00F05CF904F1180000F058F92461EC
:102F9000C6F107006462A061E56484F850505246AF
:102FA0004946384600F010F92060B8F1000F01D012
:102FB000C8F80040BDE8F08730B5114900E011467F
:102FC0000A688242FBD34B685C18844203D1406894
:102FD00018444860084643681C18944209D1084CBC
:102FE000183C2468A24209D052681A4442600A6818
:102FF00012680260814200D0086030BD0460F9E7C9
:10300000BC00002010B5044600F040F9A06B28B1C8
:103010005FF0000400F05AF9204610BD0124F9E7E2
:103020000648416B096829B1416BC968C96849689C
:10303000816270474FF0FF31FAE70000680000201E
:1030400008484068401C4FF0500080F3118804D0BD
:10305000BFF34F8FBFF36F8FFEE7BFF34F8FBFF309
:103060006F8FFEE7C40000202DE9F041044600F018
:103070000DF994F9455004F1240609E0606A48B15D
:10308000304600F0B3FF08B100F0D0F96D1E6DB20C
:10309000002DF3DC4FF0FF3684F8456000F016F9A0
:1030A00000F0F4F894F9445004F1100709E02069A5
:1030B00048B1384600F09AFF08B100F0B7F96D1E2C
:1030C0006DB2002DF3DC84F84460BDE8F04100F0FF
:1030D000FDB800002DE9F0410546002700F0A8FAF0
:1030E000324E306808B9FFF7AFFE706905424ED125
:1030F000C5B3083568070ED005F00700C0F1080019
:103100000544680707D0502080F31188BFF34F8F24
:10311000BFF36F8FFEE72DB37068854237D8234821
:10312000183001460C6801E020460C466168A9424F
:1031300002D221680029F7D131688C4227D0076874
:103140002168016060680837411B10290FD9601998
:10315000420708D0502080F31188BFF34F8FBFF390
:103160006F8FFEE713E041606560FFF725FF616840
:103170007068401A7060B268904200D2B0607069A6
:1031800001430020C4E90001F068401CF06000F039
:1031900067FF780707D0502080F31188BFF34F8F67
:1031A000BFF36F8FFEE73846BDE8F081A400002032
:1031B0000449086818B10868826C521C8264086867
:1031C000704700006800002010B5031F4FF08074A6
:1031D0001C601B1F21F001011960191F024B0B60BD
:1031E000143940380A6010BD41300008D0E901327E
:1031F00001699A60D0E901235A604A68824201D18C
:1032000082684A60002202610868401E08600868FF
:1032100070470000034B036003F1540008608020F6
:10322000106070475401002000F108014FF0FF3298
:10323000C0E90112C16001610021016070470021F5
:103240000161704730B50B685A1C02D000F10802CA
:1032500002E0026904E02246546825689D42FAD9DA
:1032600053684B6099608A60516008610168491C2D
:10327000016030BD42684A6093688B609368596012
:10328000916008610168491C01607047502080F31B
:103290001188BFF34F8FBFF36F8F0A494868401CF6
:1032A000486001280CD10848006810F0FF0F07D0D3
:1032B000502080F31188BFF34F8FBFF36F8FFEE76D
:1032C00070470000C400002004ED00E00849486891
:1032D00028B1401E486001D180F31188704750200A
:1032E00080F31188BFF34F8FBFF36F8FFEE70000AD
:1032F000C400002070B500282AD0164DA0F10804A3
:1033000060686969084207D1502080F31188BFF3D3
:103310004F8FBFF36F8FFEE722683AB1502080F3E2
:103320001188BFF34F8FBFF36F8FFEE78843606054
:1033300000F07EF960686968084468602046FFF71D
:103340003BFE2869401C2861BDE8704000F088BE43
:1033500070BD0000A40000204FF0E02000210161BA
:10336000816105494FF47A720968B1FBF2F1491E97
:1033700041610721016170476400002010B5FCF72E
:1033800029FF114910280ED300F1E02090F8F00336
:103390000A78904207D2502080F31188BFF34F8FF4
:1033A000BFF36F8FFEE709480068896800F4E060AA
:1033B000884207D9502080F31188BFF34F8FBFF3A5
:1033C0006F8FFEE710BD0000C40000200CED00E090
:1033D00010B5020014D00F48006B38B1502080F3B4
:1033E0001188BFF34F8FBFF36F8FFEE700F020F916
:1033F00000211046FFF724FC00F032FE002807D120
:1034000005494FF080500860BFF34F8FBFF36F8FB7
:1034100010BD00006800002004ED00E002490A6AC7
:103420000260C968416070476800002001490120BE
:10343000C86170476800002010B50C4650B10949BA
:1034400009681831FFF7FEFE2046BDE81040012153
:10345000FFF7F6BB502080F31188BFF34F8FBFF307
:103460006F8FFEE76800002070B5040047D0A26CA3
:10347000A2B1606C884200D30146E06A88423ED027
:10348000012A3CD11E4D2A6894420FD1502080F36E
:103490001188BFF34F8FBFF36F8FFEE7502080F38B
:1034A0001188BFF34F8FBFF36F8FFEE7E162A26910
:1034B000002A02DBC1F10701A161124E00EB80007E
:1034C000616906EB8000814219D1201DFFF78EFE55
:1034D000012130B994F82C002A6901FA00F08243E6
:1034E0002A61E06A2A6981401143296100EB80006A
:1034F00006EB8000211DBDE87040FFF7BBBE70BD2C
:1035000068000020D804002010B586B00024039481
:1035100005AA04A903A80494FFF77CFEDDE90301D2
:103520000094CDE9011000230EA11048059A00F087
:103530002CFC0F490028C86211D0502080F311885C
:10354000BFF34F8FBFF36F8F4FF0FF3088620120C2
:103550004861CC6006B0BDE8104000F09FB806B0EE
:1035600010BD000049444C4500000000952E0008A5
:103570006800002070B50446FFF788FE294D04B9A5
:103580002C68201DFFF732FE58B9E06A264A00EB8E
:10359000800152F8211021B9012181402869884316
:1035A0002861A06A18B104F11800FFF71FFE1E4839
:1035B000211DDC30FFF75EFE94F850000026012844
:1035C00001D184F85060FFF781FE686928B1FFF7E8
:1035D0005DFEFFF725FDFFF779FE2868844213D1D1
:1035E000686990B1286B38B1502080F31188BFF31F
:1035F0004F8FBFF36F8FFEE70C494FF0805008608C
:10360000BFF34F8FBFF36F8F70BD0748DC3000688A
:10361000A968884201D12E6070BDBDE8704000F0FD
:103620000FB8000068000020D804002004ED00E07E
:103630000248016B491C01637047000068000020CC
:103640001448016B11B10121C16170470021C161B2
:103650000169B1FA81F1C1F11F0101EB81020E494B
:1036600051F822306BB101EB820101F108034A6885
:1036700052684A609A4201D152684A60D16801603A
:103680007047502080F31188BFF34F8FBFF36F8FC7
:10369000FEE7000068000020D80400201CB5264981
:1036A00008780190FF20087008788DF800009DF8D8
:1036B00000009DF8002000F0F000904207D050205C
:1036C00080F31188BFF34F8FBFF36F8FFEE79DF834
:1036D00000001A4C00F0500020700720A06005E0A8
:1036E0009DF8002052008DF80020401E9DF800201B
:1036F0001206F5D4A060032807D0502080F311886B
:10370000BFF34F8FBFF36F8FFEE74FF44070A060A1
:10371000019808700A48016841F47001016001686D
:1037200041F070410160FFF717FE00206060FCF778
:103730001BFD00201CBD000000E400E0C4000020D0
:1037400020ED00E010B502460021012000F012F843
:103750000446FFF7CFFB204610BD38B50B460022CC
:1037600000901146012000F026F80446FFF7C2FB46
:10377000204638BDF8B517460E46050013D005FBA8
:1037800006F04830FFF7A6FC04000AD0002084F8B9
:10379000460004F148023B46314628460094FFF7B4
:1037A000B4FB2046F8BD502080F31188BFF34F8F43
:1037B000BFF36F8FFEE738B5049D18B153B1CAB19E
:1037C00081B120E0502080F31188BFF34F8FBFF309
:1037D0006F8FFEE7502080F31188BFF34F8FBFF348
:1037E0006F8FFEE7502080F31188BFF34F8FBFF338
:1037F0006F8FFEE739B1502080F31188BFF34F8FF0
:10380000BFF36F8FFEE748241C46012384F846303F
:103810002B460094FFF779FB204638BD70B50D4666
:10382000040025D0FFF732FDD4E90F20216802FB08
:103830000011A1600021A163216861600A46D4E9FA
:103840000F01401E00FB0121E16021464FF0FF30D7
:1038500001F8440F487004F110008DB1FFF7E4FC4B
:1038600004F12400FFF7E0FCFFF730FD012070BDFC
:10387000502080F31188BFF34F8FBFF36F8FFEE7A7
:1038800021690029F0D000F0B1FB0028ECD00449F8
:103890004FF080500860BFF34F8FBFF36F8FE3E7A7
:1038A00004ED00E02DE9FF4782B01D468A464FF047
:1038B0000008040003D0BAF1000F08D011E0502036
:1038C00080F31188BFF34F8FBFF36F8FFEE7206C3B
:1038D00038B1502080F31188BFF34F8FBFF36F8F43
:1038E000FEE7022D0AD1E06B012807D0502080F3BB
:1038F0001188BFF34F8FBFF36F8FFEE700F070FAB0
:103900003F4F4FF000094FF0805648B9049838B146
:10391000502080F31188BFF34F8FBFF36F8FFEE706
:10392000FFF7B4FCA06BE16B884207D3022D05D0F2
:103930000498D0B1B8F1000F1AD01EE02A465146C3
:103940002046FFF730FA616A19B104F1240000F053
:103950004DFB20B13E60BFF34F8FBFF36F8FFFF77A
:10396000B5FC012006B0BDE8F087FFF7AFFC22E010
:103970006846FFF753FD4FF00108FFF7A7FCFFF77C
:1039800057FEFFF783FC94F94400401C01D184F8F2
:10399000449094F94500401C01D184F84590FFF70C
:1039A00095FC04A9684600F089F930B12046FFF77C
:1039B0005BFB00F055FB0020D4E7FFF767FCA06B32
:1039C000E16B884213D1FFF781FC04F110000499E8
:1039D000FFF732FD2046FFF747FB00F041FB0028D0
:1039E0009ED13E60BFF34F8FBFF36F8F98E7FFF715
:1039F0006DFC2046FFF738FB00F032FB90E700003B
:103A000004ED00E070B50E46040009D0206C78B1DA
:103A1000502080F31188BFF34F8FBFF36F8FFEE705
:103A2000502080F31188BFF34F8FBFF36F8FFEE7F5
:103A3000206848B9A06838B1502080F31188BFF3DE
:103A40004F8FBFF36F8FFEE7FFF798FC5020EFF327
:103A5000118580F31188BFF34F8FBFF36F8FA16B78
:103A6000E06B884218D994F94500491CA163411CB8
:103A700004D0401C84F8450001200EE0606A002854
:103A8000FAD004F1240000F0B1FA0028F4D0002E9E
:103A9000F2D001203060EFE7002085F3118870BD7F
:103AA0002DE9F04790468946040003D0B9F1000F94
:103AB00008D011E0502080F31188BFF34F8FBFF37F
:103AC0006F8FFEE7206C38B1502080F31188BFF370
:103AD0004F8FBFF36F8FFEE7FFF750FC5020EFF3DF
:103AE000118680F31188BFF34F8FBFF36F8FA76BE1
:103AF000F7B194F9445049462046FFF741F97F1E3B
:103B0000A763681C04D06D1C84F84450012010E0A9
:103B100020690028FAD004F1100000F067FA0028AC
:103B2000F4D0B8F1000FF1D00121C8F80010EDE792
:103B3000002086F31188BDE8F08700002DE9F343EB
:103B4000002683B00400354609D0206C78B150209F
:103B500080F31188BFF34F8FBFF36F8FFEE75020C4
:103B600080F31188BFF34F8FBFF36F8FFEE700F034
:103B700037F9DFF83C814FF000094FF0805748B922
:103B8000049838B1502080F31188BFF34F8FBFF3F2
:103B90006F8FFEE7FFF77AFBA06BC8B1401EA063F2
:103BA000206810B9FFF704FBA060206950B104F150
:103BB000100000F01BFA28B1C8F80070BFF34F8F57
:103BC000BFF36F8FFFF782FB012005B0BDE8F083E4
:103BD000049808B166B10FE03DB1502080F3118820
:103BE000BFF34F8FBFF36F8FFEE7FFF76FFB5DE013
:103BF0006846FFF713FC0126FFF768FBFFF718FD87
:103C0000FFF744FB94F94400401C01D184F8449030
:103C100094F94500401C01D184F84590FFF756FB0C
:103C200004A9684600F04AF80028204612D0FFF7A1
:103C30001BFA00F015FA2046FFF7E4F90028A9D096
:103C40009DB3FFF723FB606A50B3206B0068C0F19F
:103C5000070126E0FFF7D6F9E0B1206838B9FFF791
:103C600015FBA06800F07CF90546FFF72FFB04F177
:103C700024000499FFF7E0FB2046FFF7F5F900F078
:103C8000EFF9002886D1C8F80070BFF34F8FBFF35B
:103C90006F8F7FE72046FFF7E7F900F0E1F979E75A
:103CA0000021A068FFF7E0FB9FE7FFE700208CE71B
:103CB00004ED00E0FF20FDF705BF00002DE9F04115
:103CC0000C46050011D0C4B1FFF7E0FA174BDA68D3
:103CD0006E682068911B471C17D02F681B6A9F4293
:103CE00019D0964217D8012410E0502080F3118893
:103CF000BFF34F8FBFF36F8FFEE7502080F3118823
:103D0000BFF34F8FBFF36F8FFEE70024FFF7DEFA9C
:103D10002046BDE8F081884205D9401A2060284637
:103D2000FFF77CFBF1E700202060DCE76800002063
:103D30002DE9FF5F8346DDE90E87994616468A46E0
:103D40009000FFF7C7F905001CD05420FFF7C2F917
:103D5000040014D00020256384F85100CDE902400E
:103D6000CDE900874B46324651465846FFF7D8F812
:103D70002046FEF79DFF012004B0BDE8F09F2846D5
:103D8000FFF7B8FA4FF0FF30F6E7F0B585B0DDE9A0
:103D90000B640A9DA6B1DCB1542700972663022666
:103DA00084F85160002604AFCDE90246CDE9005702
:103DB000FFF7B6F82046FEF77BFF049805B0F0BD8C
:103DC000502080F31188BFF34F8FBFF36F8FFEE752
:103DD000502080F31188BFF34F8FBFF36F8FFEE742
:103DE0000548416919B1006B18B1002070470120E6
:103DF0007047022070470000680000202DE9F04164
:103E00002F4C0026206B28B1A069401CA0613046D1
:103E1000BDE8F081E5686D1CE56013D1606B00685A
:103E200038B1502080F31188BFF34F8FBFF36F8FED
:103E3000FEE7606BA16B6163A063206A401C206297
:103E4000FFF7EEF8A06ADFF87C80854209D3606B4B
:103E50000068A0B1606BC068C7687868854211D2FD
:103E6000A0622068C06A00EB800158F82100012898
:103E700000D90126E0690028C9D00126C7E74FF024
:103E8000FF30EDE7381DFFF7B1F9B86A18B107F157
:103E90001800FFF7ABF9F96A012022698840104346
:103EA000206101EB810108EB8100391DFFF7E2F988
:103EB000F86A2168C96A8842C9D30126C7E70000A9
:103EC00068000020D804002070B504004FF0000105
:103ED00040D0214D2868844207D0502080F31188BB
:103EE000BFF34F8FBFF36F8FFEE7A06C38B1401E5A
:103EF000A064636CE26A9A422CD040B12AE0502060
:103F000080F31188BFF34F8FBFF36F8FFEE7201D43
:103F1000FFF76CF9114A012150B9E06A00EB800308
:103F200052F8233023B92B6901FA00F083432B6147
:103F3000606CE062C0F10700A061E06A2B6981401B
:103F40001943296100EB800002EB8000211DFFF77F
:103F500091F90121084670BD68000020D8040020B6
:103F600070B504004FF0000034D01E4DE16A2A689D
:103F7000D26A91422FD2A069002804DB2868C06A67
:103F8000C0F10700A061184E01EB8101606906EBEA
:103F9000810188421AD1201DFFF728F9012130B98B
:103FA00094F82C002A6901FA00F082432A612868FB
:103FB000C06AE0622A6981401143296100EB8000F8
:103FC00006EB8000211DFFF755F902E02868C06A62
:103FD000E062012070BD616C2A68D26A9142F8D318
:103FE00070BD000068000020D80400202DE9F041D9
:103FF000C068C468ACB104F118000746FFF7F6F8D2
:10400000154D286B0126A0B139461448FFF732F947
:10401000E06A2968C96A88421CD90120EE61BDE8BE
:10402000F081502080F31188BFF34F8FBFF36F8F63
:10403000FEE7201DFFF7DAF8E16A2A6906FA01F0C7
:104040001043286101EB81000449B43901EB800081
:10405000211DDBE70020E2E7680000208C0500203E
:104060002DE9F0472C4D00242746286B38B1FFF787
:104070000DF9286B401E2863286B40B146E05020A4
:1040800080F31188BFF34F8FBFF36F8FFEE7A968EE
:10409000224E0120D1B3A6F1B40980463068E8B1C0
:1040A000F068C46804F11800FFF7A0F8201DFFF7BE
:1040B0009DF8E06A2A6908FA00F11143296100EBD2
:1040C000800109EB8100211DFFF7D4F8E06A29681F
:1040D000C96A8842E2D3C5F81C80DFE70CB1FEF75D
:1040E0009FFFAC6944B14646FFF788FE00B1EE6120
:1040F000641EF9D10020A861E86938B10849012798
:1041000038070860BFF34F8FBFF36F8FFFF7DEF8FC
:104110003846BDE8F0870000680000208C050020CC
:1041200004ED00E010B50446FCF7F8F8FCF70AF9D6
:104130002046BDE81040FDF7C5BCFDF7C3BC00003C
:104140000400000002000000000000000000000069
:104150005C430008E91A00080000000000000000AD
:10416000800000000000000000000000684300081C
:10417000BD1C00080200000000000000000200005A
:10418000000000000000000048430008F11A000889
:10419000000000000000000000020000000000001D
:1041A0000000000054430008C51C0008FFFF000089
:1041B00000000000000200000000000000000000FD
:1041C000010202030405060708090A0B0C0D0E0F75
:1041D00010100000000000000000010203040607A8
:1041E0000809000000000102030400004854545074
:1041F0002F312E3120323030204F4B0D0A436F6E5D
:1042000074656E742D547970653A20746578742FD6
:1042100068746D6C0D0A0D0A3C68746D6C3E3C62EE
:104220006F6479207374796C653D27666F6E742DA9
:1042300066616D696C793A73616E732D736572692D
:10424000663B70616464696E673A32307078273E0D
:104250003C68323E52545520436F6E6669673C2F6E
:1042600068323E3C666F726D20616374696F6E3DAB
:10427000272F73657427206D6574686F643D277000
:104280006F7374273E42726F6B65722049503A3CDF
:1042900062723E3C696E707574206E616D653D277B
:1042A0006970272076616C75653D272573273E3C34
:1042B00062723E506F72743A3C62723E3C696E703C
:1042C0007574206E616D653D277074272076616C72
:1042D00075653D272564273E3C62723E436C6965E7
:1042E0006E742049443A3C62723E3C696E7075744B
:1042F000206E616D653D276964272076616C756568
:104300003D272573273E3C62723E3C62723E3C690B
:104310006E70757420747970653D277375626D6970
:1043200074272076616C75653D2753617665273E5D
:104330003C2F666F726D3E3C2F626F64793E3C2F5E
:1043400068746D6C3E0000005461736B5F4D515496
:10435000540000005765625461736B0053746172BE
:10436000745461736B0000005461736B5F4D6F6434
:10437000627573009443000800000020D400000020
:10438000D822000868440008D4000020F46C000023
:10439000E82200080000000034372E3130382E317A
:1043A00038362E32333500005B0753544D33325FBD
:1043B0005254555F44656661756C740000000000DE
:1043C00000000000000000000000000000000000ED
:1043D000FF000000EC4100080000000000000000A9
:1043E00000000000000000000000000001000000CC
:1043F000100000000000000000127A000000000021
:1044000000000000000000000000000000000000AC
:10441000000000000000000000000000000000009C
:10442000000000000000000000000000000000008C
:10443000000000000000000000000000000000007C
:10444000000000000000000000000000000000006C
:10445000000000000000000000000000AAAAAAAAB4
:08446000000000000000000054
:0400000508000131BD
:00000001FF
