:020000040800F2
:1000000090590020DD0100088F1D00084F1A0008DC
:100010008D1D000853030008092800080000000097
:100020000000000000000000000000004501000882
:10003000D9040008000000008901000849240008D4
:10004000F7010008F7010008F7010008F7010008B0
:10005000F7010008F7010008F7010008F7010008A0
:10006000F7010008F7010008F7010008F701000890
:10007000F7010008F7010008F7010008F701000880
:10008000F7010008F7010008F7010008F701000870
:10009000F7010008F7010008F7010008F701000860
:1000A000F7010008D5240008F7010008F70100084F
:1000B000F7010008F7010008F7010008F701000840
:1000C000F7010008F7010008F7010008F701000830
:1000D000F7010008F7010008F7010008FD270008F4
:1000E000F7010008F7010008F7010008F701000810
:1000F000F7010008F7010008F7010008F701000800
:10010000F7010008F7010008F7010008F7010008EF
:10011000F7010008F7010008F7010008F7010008DF
:10012000F7010008F7010008F7010008F7010008CF
:10013000DFF80CD000F0ECF8004800470D30000864
:1001400090590020224B19680868B0E8F00F80F33E
:100150000988BFF36F8F4FF0000080F311884EF0D5
:100160000D0E70470000000006480068006880F32C
:10017000088862B661B6BFF34F8FBFF36F8F00DFA1
:1001800000BF00BF08ED00E0EFF30980BFF36F8F01
:100190000F4B1A6820E9F00F106008B54FF05000BF
:1001A00080F31188BFF34F8FBFF36F8F03F068FCAC
:1001B0004FF0000080F31188BDE808401968086816
:1001C000B0E8F00F80F30988BFF36F8F704700BF6E
:1001D0002C000020EFF305807047000006488047A0
:1001E00006480047FEE7FEE7FEE7FEE7FEE7FEE71C
:1001F000FEE7FEE7FEE7FEE7D32400083101000832
:10020000202A04DB203A21FA02F00021704721FA6B
:1002100002F3D040C2F120029140084319467047D2
:1002200040EA01039B0703D009E008C9121F08C078
:10023000042AFAD203E011F8013B00F8013B521EF8
:10024000F9D27047D2B201E000F8012B491EFBD26F
:1002500070470022F6E710B513460A4604461946D1
:10026000FFF7F0FF204610BD30B505462A460B4685
:1002700012F8010B13F8014B08B1A042F8D01CB1E1
:10028000002802D06D1CF1E7284630BDCAB2401EDE
:1002900010F8011F8A4202D00029F9D100207047CE
:1002A000421C10F8011B0029FBD1801A70472DE970
:1002B000F05F0546002092469B46884606468146EA
:1002C00040241BE02846414647462246FFF798FF58
:1002D00053465A46C01A914110D311461846224639
:1002E00000F028F82D1A67EB01084F46224601203E
:1002F000002100F01FF817EB00094E41201EA4F169
:100300000104DFDC484631462A464346BDE8F09FFB
:10031000064C074D06E0E06840F0010394E8070052
:1003200098471034AC42F6D3FFF706FF5447000855
:1003300074470008202A04DB203A00FA02F100206A
:1003400070479140C2F1200320FA03F31943904013
:100350007047FEE710B501225102094800F088FA03
:1003600003F05EFF01280AD006480068002806D086
:100370000023BDE810401A46194603F0B3BC10BD77
:10038000002001401800002010B503F049FF0128AB
:1003900006D00748006818B14FF0FF3103F0EEFDBA
:1003A000BDE8104000224FF40071024800F060BA2E
:1003B000180000200020014070B515000E460446CC
:1003C0001AD0FFF7E1FF272001F058FD204601F089
:1003D00055FDE8B201F052FD280A01F04FFD00245E
:1003E00004E0FF2001F04AFD3055641CAC42F8DB0C
:1003F000BDE87040FFF7AEBF70BD10B50446FFF713
:10040000C3FF3B2001F03AFD204601F037FDFF20FD
:1004100001F034FD0446FF2001F030FD44EA0024E1
:10042000FFF798FF204610BD01B5012269462E2036
:1004300002F0EBF9002008BD70B515000E46044629
:1004400020D0FFF7A1FF282001F018FD204601F081
:1004500015FDE8B201F012FD280A01F00FFD00249D
:1004600003E0305D01F00AFD641CAC42F9DBFFF7EC
:1004700071FFFFF789FF342001F000FDBDE87040F7
:10048000FFF768BF70BD08B503228DF800008DF836
:100490000110080A8DF802006946322002F0B5F911
:1004A00008BD08B502228DF800008DF801106946DC
:1004B000302002F0AAF908BD01B5012269463520B5
:1004C00002F0A3F9002008BD01B5012269463620DB
:1004D00002F09BF9002008BD704772B6FEE710B528
:1004E00090F821100022022905D00421816380F8B0
:1004F0002020012010BD01680B6823F00E030B6063
:1005000001680B6823F001030B6090F84030C46B66
:10051000012101FA03F3636080F8211080F82020A4
:10052000104610BD2DE9F05F90F82110002402293B
:1005300003D004218163012485E001680A6822F068
:100540000E020A6001680A6822F001020A603F4E4A
:100550003E4FB215DFF8F4C0DFF8F090DFF8ECA002
:10056000DFF8E8B0DFF8E4E00168783F1301150236
:10057000ACF1640CA9F15009AAF13C0AABF1280BCB
:10058000AEF1140E4FF48018B14227D9B9420ED003
:10059000614512D049451DD0514518D0594518D054
:1005A000714501D1424615E0294EB14201D10122E7
:1005B00010E0274E1436B14201D110220AE0244E39
:1005C0002836B14206D0224A3C32914201D11A4625
:1005D00000E02A461E49091F0A602BE0B94213D0E9
:1005E000614517D0494522D051451DD059451DD0F0
:1005F000714501D142461AE0B14202D14FF08072FA
:1006000015E0134EB14201D1012210E0104E143614
:10061000B14201D110220AE00D4E2836B14206D077
:100620000B4A3C32914201D11A4600E02A46074962
:1006300080394A60012180F82110002180F82010C3
:10064000416B01B188472046BDE8F09F8000024021
:100650000804024070B5044600F010F90546601C1D
:1006600002D004480078044400F008F9401BA0427E
:10067000FAD370BD1C0000202DE9F84FDFF8C891B7
:100680000024A9F1040B23460F2709F1040AABF15A
:10069000040ED1E00125A54006EA0502AA4276D162
:1006A000DFF8A8C14E68A6EB0C0866452BD00DDC20
:1006B000032E34D005DC36B3012E19D0022E2FD1F3
:1006C0001BE0112E16D0122E2AD119E0B8F5881F82
:1006D00019D006DCB8F5803F15D0B8F5801F1FD1C2
:1006E00011E0B8F5001F0ED0B8F5041F18D10AE0CC
:1006F000CB6815E0CB681B1D12E0CB6808330FE018
:10070000CB680C330CE08B682BB1012B4FF0080346
:1007100003D0456104E0042302E0056100E000230A
:10072000FF2A01D8064601E000F104064FEA8405DD
:1007300001D9A5F12005D6F8008007FA05FC28EAC2
:100740000C0803FA05F548EA0508C6F800804D686C
:10075000ED0070D53E4DAE6946F00106AE61AD6963
:1007600024F0030605F0010500953A4D06EB050C53
:10077000DCF80850A607360F07FA06F825EA080540
:10078000DFF8D480404503D14FF0000825E052E067
:10079000DFF8C880404502D14FF001081DE0DFF8C6
:1007A000C080404502D14FF0020816E0DFF8B48067
:1007B000404502D14FF003080FE0DFF8AC80404520
:1007C00002D14FF0040808E0DFF8A080404502D1D4
:1007D0004FF0050801E04FF0060808FA06F848EA6D
:1007E0000508CCF808804D68D9F80060ED024D4648
:1007F00001D5164300E096432E604D68DAF800609C
:10080000AD02554601D5164300E096432E604D6873
:10081000DBF80060AD035D4601D5164300E096436A
:100820002E604D68DEF80060ED03754601D5164375
:1008300000E096432E60641C0A681646E2407FF48E
:1008400029AFBDE8F88F0000080401400000111036
:10085000001002400000014000080140000C01406F
:10086000001001400014014000180140001C01402C
:100870000AB1016170470904FBE700000148806884
:10088000704700001C000020024881680278114473
:10089000816070471C000020074810B5016841F0D6
:1008A00010010160032000F095F80F2000F006F819
:1008B00000F03EF8002010BD0020024000B50146C7
:1008C00087B00022192000F065F8192000F054F8D4
:1008D0001348816941F400618161806905A900F4D0
:1008E00000600690684600F01DF900F04BF90D49D4
:1008F0000D4AB0FBF1F10D48491E0260416040F223
:10090000E7320021C0E90321816000F040FD10B111
:10091000012007B000BD054800F068FDF9E70000C0
:100920000010024040420F00002C014054040020FF
:100930000F4808B5816941F001018161816901F0C9
:1009400001010091C16941F08051C161C06900227B
:1009500000F0805000900F21901E00F01BF8054819
:10096000416821F0E06141F00071416008BD000084
:100970000010024000000140002809DB00F01F02C7
:10098000012191404009800000F1E020C0F80011F1
:1009900070470000F0B40E4B1B680C46C3F30223F3
:1009A000C3F10705042D00D90425191D072901D21B
:1009B000002300E0DB1E012606FA05F1491E214056
:1009C00099409E40761E16403143F0BC01F056BF60
:1009D0000CED00E0064900F0070208684FF6FF033F
:1009E000184040EA0220034A1043086070470000A4
:1009F0000CED00E00000FA052DE9F0470F46050078
:100A000061D0434E306800F00700B84209D2306828
:100A100020F0070038433060306800F00700B8422B
:100A200051D128683B4C810712D5400703D5606837
:100A300040F4E06060602878000703D5606840F407
:100A4000605060606068A96820F0F0000843606052
:100A50002878C00728D06868012810D021680228AB
:100A600010D0890700292EDA616821F003010143C3
:100A70006160FFF703FF804641F288390DE021688D
:100A80008903EFE78901EDE7FFF7F8FEA0EB080126
:100A9000494502D90320BDE8F0876068696800F025
:100AA0000C00B0EB810FEFD1306800F00700B842C6
:100AB0000BD9306820F0070038433060306800F010
:100AC0000700B84201D00120E5E72878400705D5A6
:100AD0006068E96820F4E0600843606028780007F7
:100AE00006D56068296920F4605040EAC100606062
:100AF00000F058F86168084AC1F30311515CC8401E
:100B00000649086006480068FFF7D8FE0020C2E7E3
:100B10000020024000100240FE450008280000208E
:100B2000200000200F2202600C4A536803F00303E8
:100B30004360536803F0F0038360536803F4E06399
:100B4000C36052684FF4E06303EAD20202610448D2
:100B5000006800F0070008607047000000100240C5
:100B6000002002400448054900684968044AC1F36E
:100B70000221515CC840704728000020001002404C
:100B80000E4600080448054900684968044AC1F354
:100B9000C221515CC840704728000020001002406C
:100BA0000E4600080E4A51680E4801F00C03042B53
:100BB00011D0082B0FD10C48C1F38343C903C05C8B
:100BC0000AD55168084AC1F34041921E515C054A5A
:100BD0005043B0FBF1F070470449484370470000B0
:100BE0000010024000127A00EE45000800093D00A6
:100BF0002DE9F84F040070D02078C04DC00749D0CF
:100C00006868C0F38100012807D06868C0F38100DC
:100C1000022809D16868C00306D52868800339D541
:100C200060680028E7D035E06068B0F5803F0BD001
:100C300010B1B0F5A02F11D0286820F480302860C2
:100C4000286820F4802002E0286840F48030286082
:100C5000606890B1FFF712FE06460AE0286840F48B
:100C600080202860F0E700BFFFF708FE801B6428A3
:100C700073D828688003F7D50CE0FFF7FFFD064620
:100C800005E000BFFFF7FAFD801B6428F0D8286854
:100C90008003F7D420789A4E80074FF001094FF077
:100CA000000839D5686810F00C0F07D06868C0F3E9
:100CB0008100022809D16868C00306D4286880072B
:100CC00014D52069012808D110E02069B0B1C6F818
:100CD0000090FFF7D3FD074605E00AE1FFF7CEFDE0
:100CE000C01B0228C4D828688007F7D52868616926
:100CF00020F0F80040EAC10028600DE0C6F800804E
:100D0000FFF7BCFD074604E0FFF7B8FDC01B022853
:100D100023D828688007F7D4207800072CD5794895
:100D2000A169D9B1C0F80090FFF7A8FD074604E01B
:100D3000FFF7A4FDC01B02280FD8686A8007F7D50B
:100D400071484FF4FA510068B0FBF1F0009000BF19
:100D50000098411E0091FAD20EE080E0C0F80080B9
:100D6000FFF78CFD074604E0FFF788FDC01B022853
:100D700075D8686A8007F7D42078400760D5E8699D
:100D80000027C00008D4E86940F08050E861E869B5
:100D9000012700F0805000905C480168C90513D419
:100DA0000168834641F480710160FFF767FD824668
:100DB00006E000BFFFF762FDA0EB0A0064284ED8F2
:100DC000DBF80000C005F5D5E06801280AD008B1BD
:100DD000052813D0286A20F001002862286A20F034
:100DE000040002E0286A40F001002862E06841F255
:100DF000883B98B1FFF742FD82460BE0286A40F03D
:100E000004002862EEE700BFFFF738FDA0EB0A01FF
:100E100059455AD8286A8007F6D50CE0FFF72EFD11
:100E2000824605E0FFF72AFDA0EB0A0159454CD8A0
:100E3000286A8007F6D41FB1E86920F08050E86185
:100E4000E06988B36968C1F38101022944D00228AE
:100E5000C6F8608004D0FFF711FD044638E034E0A6
:100E6000FFF70CFD074604E0FFF708FDC01B022852
:100E70002BD828688001F7D4206AB0F5803F05D1CF
:100E80006868A16820F4003008436860D4E908016C
:100E90000843696821F4741108436860C6F86090DB
:100EA000FFF7ECFC044606E025E000BFFFF7E6FC98
:100EB000001B022809D828688001F7D51BE000BF75
:100EC000FFF7DCFC001B022802D90320BDE8F88FE5
:100ED00028688001F4D40EE00128F7D06868226AFF
:100EE00000F48031914204D1616A00F470108842AC
:100EF00001D00120EAE70020E8E7000000100240EE
:100F0000000042428004424228000020007000405D
:100F100070B5040009D0606A002540B125616561A3
:100F2000A56294F8510040B10CE0012070BD6068EA
:100F3000B0F5827FF4D0E561F2E784F850502046A6
:100F400000F040F8022084F851002068016821F088
:100F500040010160A088218900F4827001F40441FD
:100F60000843A18901F400610843217C01F00201DA
:100F70000843217D01F001010843218B01F4007138
:100F80000843217F01F03801084394F8201001F054
:100F900080010843218D01F4005108432168086055
:100FA000A069042101EA1040216848602068C169F5
:100FB00021F40061C1616565012084F851000020C1
:100FC00070BD000030B585B00024009401940294F7
:100FD000039400681449884223D11448816941F47C
:100FE00080518161816901F480510491816941F0EE
:100FF0000401816180690E4D00F004000490A0207E
:101000000090022001900320039069462846FFF7D4
:1010100033FB4020CDE90004694628460294FFF7DF
:101020002BFB05B030BD0000003001400010024035
:10103000000801402DE9F84F984616468A460446B6
:10104000FFF71CFC814694F8510001281ED1BAF12B
:10105000000F73D0002E71D094F85000012815D0E5
:10106000012784F85070032084F85100002565653D
:10107000C4F830A0A686E686A563A587E5876564E3
:101080002564A068B0F5004F03D00CE00220BDE855
:10109000F88F2068016821F0400101602068016834
:1010A00041F48041016020680168490603D4016869
:1010B00041F040010160E068B0F5006F606803D066
:1010C00048B3012E27D047E008B1012E1FD1206B75
:1010D00021680088C86006E020688168890709D512
:1010E000216B0988C160206B801C2063E08E401E4C
:1010F000E0860CE0FFF7C2FBA0EB0901414503D3FA
:10110000B8F1FF3F03D035E0B8F1000F32D0E08EE8
:101110000028E1D123E0206B21680078087306E005
:101120002068816889070AD5216B09780173206BD3
:10113000401C2063E08E401EE0860DE02BE0FFF7B0
:101140009DFBA0EB0901414503D3B8F1FF3F03D05C
:1011500010E0B8F1000F0DD0E08E0028E0D14A4633
:101160004146204600F014FE08B120206065A068CA
:1011700030B109E084F8517084F85050032086E7BC
:101180002068C1688068009084F8517004F8505F4E
:1011900060680028F3D0012079E72DE9FF4F81B086
:1011A0001D46934604464FF001090E9EFFF766FB6D
:1011B000074694F851006168012806D0B1F5827F96
:1011C0003CD1A168C9BB042838D10298002871D04D
:1011D000BBF1000FFBD0002DF9D094F8500001288E
:1011E0002CD04FF0010A84F850A094F85100042844
:1011F00002D0052084F851004FF00008C4F8548054
:10120000C4F838B0E587A58702992163E586A586ED
:10121000C4F84080C4F8448020680168490603D4BB
:10122000016841F040010160E068B0F5006F60685E
:1012300008D0F0B3012D49D081E0FFE7022005B0CE
:10124000BDE8F08F08B1012D39D1206B21680088ED
:10125000C860206B801C2063E08E401EE0862EE07C
:101260002068816889070FD5E18E69B1B9F1010F56
:101270000AD1216B0988C160206B801C2063E08E3D
:10128000401EE0864FF0000920688168C9070CD035
:10129000E18F51B1C068A16B0880A06B801CA06376
:1012A000E08F401EE0874FF00109FFF7E7FAC01B0F
:1012B00001E00BE067E0B04201D3701C50D1E08E3A
:1012C0000028CDD1E08F0028CAD13EE0206B2168F4
:1012D00000780873206B401C2063E08E401EE0867F
:1012E0002DE02068816889070FD5E18E69B1B9F1D9
:1012F000010F0AD1216B09780173206B401C206318
:10130000E08E401EE0864FF0000920688168C90722
:101310000CD0E18F51B1C068A16B0870A06B401C6C
:10132000A063E08F401EE0874FF00109FFF7A6FAA7
:10133000C01BB04202D3701C01D011E086B1E08E18
:101340000028CED1E08F0028CBD13A463146204646
:1013500000F01EFD50B12020606584F8508012E03E
:1013600084F851A084F85080032068E7A06818B979
:101370002068C1688068009084F851A084F850808B
:10138000606D0028F1D0012059E77047704710B513
:10139000040003D094F83D0010B107E0012010BD17
:1013A000002084F83C00204600F01EF8022084F85B
:1013B0003D00211D206801F093F8012084F84600CB
:1013C00084F83E0084F83F0084F8400084F841002F
:1013D00084F8420084F8430084F8440084F845000F
:1013E00084F83D00002010BD7047000090F83D10CB
:1013F000012901D001207047022180F83D100168C9
:10140000CA6842F00102CA6000680E4988420ED0E4
:101410000D4988420BD0B0F1804F08D00B4988426B
:1014200005D00B49884202D00A49884204D181681C
:1014300001F00701062903D0016841F001010160B4
:1014400000207047002C014000340140000400409F
:1014500000080040000C004070472DE9F0410446B0
:101460000068C66805694FF00007A90713D5B107E2
:1014700011D5F91E0161012020772068806980075D
:10148000204602D0FFF7E8FF04E000F07EF8204697
:1014900000F07CF82777680716D5700714D5216807
:1014A0006FF004000861022020772068806910F442
:1014B000407F204602D0FFF7CFFF04E000F065F840
:1014C000204600F063F82777280715D5300713D595
:1014D00021686FF008000861042020772068C06947
:1014E0008007204602D0FFF7B7FF04E000F04DF878
:1014F000204600F04BF82777E80616D5F00614D5FD
:1015000021686FF010000861082020772068C0690A
:1015100010F4407F204602D0FFF79EFF04E000F069
:1015200034F8204600F032F82777E80708D0F007B3
:1015300006D021686FF001000861204600F028F80D
:10154000280608D5300606D521686FF080000861AE
:101550002046FFF71AFF680608D5700606D52168F1
:101560006FF040000861204600F01CF8A8060AD57C
:10157000B00608D521686FF0200008612046BDE85C
:10158000F041FFF703BFBDE8F081704770470000EE
:1015900000680349884201D1FFF776B9704700001F
:1015A000002C01407047704770470000F8B5016893
:1015B00004460868CA684B6910F00F0F4FF0000529
:1015C00059D003F0010602F49077374365D0C10784
:1015D00005D0D10503D5616C41F00101616441077B
:1015E00005D5D90703D0616C41F002016164810720
:1015F00005D5D90703D0616C41F00401616401078E
:1016000007D502F02001314303D0616C41F008019D
:101610006164616C00293AD0800604D5900602D539
:10162000204600F0DAFF20684069616CC0F380104A
:10163000090700D460B3204600F0A8FF2068406985
:10164000400621D52068143050E8001F21F04001E9
:1016500040E80012002AF5D1E06BA8B16D49416362
:10166000E06BFEF75FFF002811D0E06B416B01B02B
:10167000BDE8F040084783060FD593060DD52046F8
:10168000BDE8F84000F0A9BF2046FFF78DFFF8BD88
:101690002046FFF789FF6564F8BD266B2023012EE5
:1016A0007CD1C6067AD5D60678D5086848680090F9
:1016B00048694FF00206400640D5E16B0868406873
:1016C0000004000CE8D0A28D8242E5D9E08588694B
:1016D00020282DD020680C3050E8001F21F48071A4
:1016E00040E80012002AF5D12068143050E8001FAD
:1016F00021F0010140E80012002AF5D120681430E1
:1017000050E8001F21F0400140E80012002AF5D106
:1017100084F84230256320680C3050E8001F21F027
:10172000100140E80012002AF5D1E06BFEF7D7FE69
:101730006663A08DE18D401A81B22AE0A08DE18D13
:10174000401A81B2E08D0028A6D00029A4D02268DA
:101750000C3252E8000F20F4907042E80007002F8E
:10176000F5D12068143050E8002F22F0010240E843
:101770000027002FF5D184F84230256320680C3013
:1017800050E8002F22F0100240E80023002BF5D192
:1017900066632046FFF707FFF8BDFFE705062BD578
:1017A000150629D594F841002128F5D1A068B0F597
:1017B000805F01D12069B0B1206A411C216221689B
:1017C00000784860E08C401E0004000CE084E3D107
:1017D0002068C16821F08001C1602068C16841F0C3
:1017E0004001C160D8E7206A0088C0F30800486063
:1017F000206A801C2062E5E74006CDD55006CBD597
:10180000CA68204622F04002CA6084F8413000F0E5
:101810001DF9C1E77D25000870B5040004D094F8D7
:101820004100002510B106E0012070BD84F8405051
:10183000204600F023F8242084F841002068C16885
:1018400021F40051C160204600F028FF20680169A2
:1018500021F4904101612068416921F02A01416130
:101860002068C16841F40051C1606564202084F89B
:10187000410084F842006563002070BD70B586B0F9
:101880000024009401940294039403682B482A4E88
:10189000022103220515B34221D1836943F4804319
:1018A0008361836903F480430493836943F00403F1
:1018B00083618069224E00F0040004900802CDE9A3
:1018C0000001039269463046FEF7D6FECDE900548A
:1018D000694630460294FEF7CFFE06B070BD194E41
:1018E000B342FAD1C36943F48023C361C36903F4EB
:1018F00080230493836943F0080383618069CDE901
:10190000005100F00800CDE903200F4D694628463C
:10191000FEF7B2FEE814CDE90004694628460294B9
:10192000FEF7AAFE002205212720FFF733F8272023
:10193000FFF722F8D1E70000003801400010024014
:101940000008014000480040000C014090F842307F
:10195000202B01D00220704721B11AB1002303636C
:1019600000F0F8BE0120704700680C49884213D18E
:101970000B480C4B0278401E41885A54491C89B2CE
:101980004180072903D301210170002141800122F8
:1019900003490548FFF7DABF7047000000480040E0
:1019A00001000020980000200C0400202DE9F843DD
:1019B000044690F84100984616460D46202802D06D
:1019C0000220BDE8F88385B17EB10020606421204B
:1019D00084F84100FEF752FFA6848146E684A068A1
:1019E0002027B0F5805F02D003E00120E9E72069FD
:1019F00010B12E4600250EE000260CE08021204686
:101A000000F0C3FEA8B9C6B116F8010B2168486002
:101A1000E08C401EE084E08C4B464FF00002CDF895
:101A200000800028EAD14FF04001204600F0ADFED2
:101A300040B184F841700320C3E735F8020BC0F3CE
:101A40000800E3E784F841700020BAE77047FEE73A
:101A500070B504460E460846FEF722FC10210546E6
:101A600021700C3060700020A0700421E1704D22C4
:101A70002271512262715422A271E27121720221FB
:101A80006172A0723C20E072280A2073657304F131
:101A90000E002A463146FEF7C3FB05F10E0070BD6D
:101AA0002DE9F0470446904689460846FEF7F8FBC4
:101AB00005464046FEF7F4FB0646A8193021801C77
:101AC00021707F2806DD40F08001C0096170A070A0
:101AD000032701E060700227280AE0557F1C2A4690
:101AE000E5557F1CE0194946FEF79AFB3D44601915
:101AF00032464146FEF794FBA819BDE8F0872DE970
:101B0000F04105460F460846FEF7CAFB044682210F
:101B10002970401D68700026AE700120E870200A10
:101B200028716C71A81D22463946FEF779FBA01D6D
:101B30002E54E01DBDE8F08110B5A2B00020209029
:101B4000219020A801F0F1FA1D4C1E4B0DF1700CF4
:101B500060610FCB8CE80F0000211CA801F0D2FAC5
:101B6000184920611C2210316846FEF759FB0021FC
:101B7000684601F0E2FA134920601C222C3107A8C4
:101B8000FEF74EFB002107A801F0D7FA0D4960606F
:101B90001C2248310EA8FEF743FB00210EA801F0DD
:101BA000CCFA0849A0601C22643115A8FEF738FB66
:101BB000002115A801F0C1FAE06022B010BD0000BC
:101BC000040000206C4500082DE9F04F85B000248A
:101BD0003B480094019402940394816941F04001D0
:101BE0008161816901F040010491816941F0040142
:101BF0008161816901F004010491816941F008016A
:101C00008161816901F008010491816941F4807169
:101C10008161816901F480710491816941F0200141
:101C200081618069DFF89C9000F020000490002220
:101C300020214846FEF71CFEDFF88CA00022802100
:101C40005046FEF715FEDFF884B04FF4007801220D
:101C500041465846FEF70CFE002220211C48FEF7A4
:101C600007FE20270226012500970396CDE901549F
:101C700069464846FEF700FD40208DE83100694680
:101C80005846FEF7F9FC8020CDE90005CDE9024673
:101C900069465046FEF7F0FCCDF800800396CDE98A
:101CA000015469465846FEF7E7FC00970396CDE9D4
:101CB000015469460648FEF7DFFC05B0BDE8F08F29
:101CC00000100240001801400014014000200140B3
:101CD000000C0140104810B50E4901604FF48271AC
:101CE000416000218160C1604FF400720161C0E970
:101CF00005122822C0E90721416281620A21C162DE
:101D0000FFF706F9002803D0BDE81040FEF7E5BB59
:101D100010BD0000003001406C0300200C4810B5DD
:101D20000A4901604FF4E1314160002181600C22D9
:101D3000C160C0E904128161C161FFF76DFD002837
:101D400003D0BDE81040FEF7C8BB10BD003801400D
:101D5000C40300200C4810B50A4901604FF4165125
:101D60004160002181600C22C160C0E904128161E0
:101D7000C161FFF751FD002803D0BDE81040FEF718
:101D8000ACBB10BD004800400C040020FEE7FEE79D
:101D9000F8B515460E460B46009204460122022174
:101DA00000F010F840B9334600228021204600950B
:101DB00000F008F8002804D0606D40F02000606555
:101DC0000320F8BD2DE9F8431E4691468846044697
:101DD000089DFEF753FD401B351AFEF74FFD0746E1
:101DE00025480068C0F3CB30684338E0701C37D01A
:101DF000FEF744FDC01BA84203D215B1009860B3A2
:101E00002CE02068416821F0E00141606068B0F595
:101E1000827F0BD1A068B0F5004F02D0B0F5806F83
:101E200004D12068016821F040010160A06AB0F58A
:101E3000005F09D12068016821F400510160206829
:101E4000016841F400510160012084F85100002034
:101E500084F850000320BDE8F8830025401E009060
:101E60002068816838EA010004D000214945BDD1CD
:101E70000020F0E70121F9E72800002001B582B039
:101E800000208DF8040064200090012301AA02A91B
:101E90000248FFF782F99DF804000EBD6C03002094
:101EA000012001F023F9FBE7ADF5207DA0A0A3A15F
:101EB000006899909FA04FF0000800689A909CA03D
:101EC000444600689B909CA040F25B7500689C9023
:101ED000D1E90001CDE993019AA000F0ABFC9F4E3F
:101EE000002280213046FEF7C3FC3220FEF7B2FB11
:101EF000012280213046FEF7BBFCC820FEF7AAFB7A
:101F0000C82001F0F3F896A000F094FC93A800F02C
:101F100062FF9AA800F04DFF9BA800F038FF9CA834
:101F200000F06EFF322001F0E1F895A000F082FC95
:101F300055208DF8740200278DF86072FEF724FAA0
:101F400006208DF87802642301229EA99548FFF7A8
:101F500071F864200090012398AA9DA99148FFF789
:101F60001CF9FEF7F7F99DF860128FA000F062FCF3
:101F70009DF86002AA2812D095A000BF00F05AFC7C
:101F80009EA000F057FC00F0EDFEC82001F0AEF876
:101F9000012000F047FFA1A000F04CFC04E0A7A046
:101FA000ECE7642001F0A2F800F0BEFE0128F8D0B2
:101FB000ACA000F03FFC0321404600F0F2FF99A9DD
:101FC000404600F0C2FF2946404600F0D7FFAAA0D5
:101FD00000F030FC404600F081FF142001F086F84C
:101FE000404600F0EEFFDFF8B09201AD4FF47A7A90
:101FF000404600F064FF404600F04DFF002832D01C
:10200000404600F048FF0646014601AA404600F05F
:1020100021FF0020AF55202103E02A5C02B929549A
:10202000401CB042F9DB01A99CA000F003FCA0A178
:1020300001A8FEF719F9060015D03121FEF726F99F
:1020400020B19CA000F0F6FB002208E030213046D1
:10205000FEF71CF938B19DA000F0ECFB0122202115
:102060004846FEF705FC97A9404600F068FE9DF83B
:102070005D02042805D000284AD0642001F036F81B
:10208000B6E72CB3012C32D0022CB1D19648642291
:1020900096A9006901F0D6FE0128A9D1402183A8A4
:1020A000FEF7D7F8BDF8582290A183A800F0D2FB24
:1020B00083AA92A141A8FFF7F3FC86B283A992A05C
:1020C00000F0B8FB324641A9404600F020FF8FE700
:1020D00092A000F0AFFB98A141A8FFF7B9FC82B233
:1020E00041A9404600F013FF01245046C6E796A0E0
:1020F00000F0A0FB9EA141A8FFF701FD82B241A91B
:10210000404600F004FF0224504600F0EFFFBDE718
:102110009BA000F08FFB0024404600F0DFFE14205F
:1021200000F0E4FF404600F04CFF4FF4FA60A5E7F2
:10213000C0A87B58C0A87BC8FFFFFF0000AABBCC8B
:10214000DDEE00004348333935513A20526573655E
:102150007474696E672E2E2E0D0A00000014014063
:102160004348333935513A20436F6E666967204ED4
:10217000657420506172616D732E2E2E0D0A000061
:102180002D2D2D205350492048617264776172656E
:102190002054657374205374617274202D2D2D0D9D
:1021A0000A0000006C0300205465737420526573AC
:1021B000756C743A2053656E6420307835352C2068
:1021C00052656164203078253032580D0A000000D5
:1021D0003E3E204841524457415245204641494CD9
:1021E0003A20535049204572726F72206F7220431B
:1021F00068697020446561642E0D0A002D2D2D2024
:102200005350492048617264776172652054657348
:102210007420456E64202D2D2D0D0A00434833395E
:1022200035513A2057616974696E6720666F722074
:102230004C696E6B2E2E2E0D0A0000003E3E20488B
:102240004152445741524520535543434553533A15
:1022500020434833393520697320416C6976652104
:102260000D0A00004348333935513A204C696E6BF2
:10227000205550210D0A00004348333935513A208A
:10228000436F6E6E65637420746F204D5154542EED
:102290002E2E0D0A00000000001801404445425552
:1022A0004720526563763A205B25735D0D0A000076
:1022B0006C656400434D443A204C4544204F4E2009
:1022C00028536574204C6F77290D0A00434D443A1A
:1022D000204C4544204F46462028536574204869C9
:1022E0006768290D0A000000040000207B22746545
:1022F0006D70223A2025647D0000000064657669D7
:1023000063652F64617461004D5154543A205075D7
:10231000626C6973682025730D0A000053656E6452
:10232000696E67204D51545420434F4E4E454354DF
:102330002E2E2E0D0A00000053544D33325F47728B
:1023400061647561746500005375627363726962DC
:10235000696E6720746F20276465766963652F63F3
:102360006F6E74726F6C272E2E2E0D0A0000000007
:102370006465766963652F636F6E74726F6C0000BD
:1023800054435020436C6F7365642E205265636F15
:102390006E6E656374696E672E2E2E0D0A00000046
:1023A000012000F0A3FEFBE7ADF5806D4FF00109C1
:1023B0004FF47A7000F09AFE03214846FEF771F858
:1023C00050214846FEF75FF84846FEF72DF848468C
:1023D000FEF77AF84FF4007740F2FF1800256E46BA
:1023E0004846FEF70AF8040025D0BC4200D3444614
:1023F000224669464846FDF7DFFF355510A168467D
:10240000FDF732FFB8B10F4980A800F023FA80A889
:10241000FDF746FF82B280A94846FEF70DF832204C
:1024200000F064FE4846FEF747F84846FDF7FCFF1B
:102430004846FEF749F8142000F058FED0E70000A7
:10244000474554001846000810B5502080F3118805
:10245000BFF34F8FBFF36F8F01F0F0FE18B1044947
:102460004FF080500860002080F3118810BD0000FC
:1024700004ED00E030B58FB028216846FDF7E9FE95
:1024800014210AA8FDF7E5FE01210804CDE900109A
:102490000024029402250491CDE907504FF4E01086
:1024A00009906846FEF7A4FB08B172B6FEE70F205C
:1024B000CDE90A054FF48060CDE90C4002210AA85D
:1024C0000E94FEF799FA002801D072B6FEE70FB01D
:1024D00030BD70470148FEF7C0BF00005404002023
:1024E000F0B50268204C214D214E224F224B4FF077
:1024F000804CA04209D0984207D0604505D0A84240
:1025000003D0B04201D0B84204D122F0700E4A6824
:1025100042EA0E02A04209D0984207D0604505D099
:10252000A84203D0B04201D0B84203D122F4407592
:10253000CA682A434D6922F080022A4302608A68F1
:10254000C2620A688262A04201D0984201D1096940
:102550000163012141610169C90703D0016921F0CB
:1025600001010161F0BD0000002C014000040040A9
:1025700000080040000C00400034014010B5406AE3
:102580000021C185C184FFF70FF810BD01680C312F
:1025900051E8002F22F4907241E80023002BF5D17E
:1025A0000168143151E8002F22F0010241E80023B4
:1025B000002BF5D1016B012909D101680C3151E8DB
:1025C000002F22F0100241E80023002BF5D120213A
:1025D00080F8421000210163704708B590F842105E
:1025E000222901D0022008BD82684FF480539A420C
:1025F00001D1016921B1816A9A421BD04AB10AE036
:102600000268816A5268C2F308020A80816A891CE2
:1026100008E0026972B10268526802F07F020A7033
:10262000816A491C8162C18D491E0904090CC1855A
:1026300003D01BE002685268F1E70168CA6822F023
:102640002002CA600168CA6822F48072CA60016808
:102650004A6922F001024A61202180F842100021DB
:102660004163026B012A03D0FFF77EF9002008BD09
:10267000016301680C3151E8002F22F0100241E89B
:102680000023002BF5D101680A68D20602D50A683A
:1026900049680091818DFEF786FFE7E770B5044633
:1026A00000680169E26821F4405111430161216928
:1026B000A0680843616908432168CA6841F20C6355
:1026C0009A430243CA6020684169A26921F44071BB
:1026D000114341611E492068884202D1FEF752FA37
:1026E00001E0FEF73FFA00EBC00101EB0012606869
:1026F00064218000B2FBF0F3B3FBF1F36FF0180636
:102700007343B2FBF0F5B2FBF0F605EB8305322321
:1027100003EB0515B5FBF1F5B6FBF1F605F0F00599
:1027200005EB0615B2FBF0F6B2FBF0F0B0FBF1F0F2
:102730006FF01802504306EB800003EB0010B0FB73
:10274000F1F0216800F00F002844886070BD00009F
:102750000038014081628285C285002141642221C6
:1027600080F84210016921B10168CA6842F48072A0
:10277000CA6001684A6942F001024A610068C168A2
:1027800041F02001C160002070472DE9F8439846D0
:1027900017460D460446089E24E0701C22D0FEF722
:1027A0006DF8A0EB0800B0421AD8CEB12068C1681D
:1027B000490717D5802D15D0402D13D00168C94386
:1027C00009070FD401680025406800902046FFF7F4
:1027D000DDFE0820606484F840500120BDE8F883E5
:1027E0000320FBE72068006835EA000004D00020E1
:1027F000B842D2D00020F1E70120F9E70148FEF706
:10280000D5BE00000C040020FEE770B515460E464C
:102810000446FDF7B9FD2046FFF730FB002403E036
:10282000305DFFF72BFB641CAC42F9DBBDE8704068
:10283000FDF790BD0FB4054B10B503A9044A0298EB
:1028400000F03CF810BC5DF814FB0000F52F000808
:10285000940000200FB4084B10B504A902AA0398F5
:1028600000F02CF8044602A9002000F058FA204697
:1028700010BC5DF814FB00001F2D00080907090EAD
:10288000002804DB00F1E02080F80014704700F01D
:102890000F0000F1E02080F8141D704702E008C826
:1028A000121F08C1002AFAD170477047002001E0CA
:1028B00001C1121F002AFBD1704700002DE9FF4F14
:1028C0008DB00F460546002606E025280BD0DDE931
:1028D0000F1290476D1C761C28780028F5D111B096
:1028E0003046BDE8F08F0024A246A1460122EC4903
:1028F00000E0044315F8013F203B02FA03F00842D0
:10290000F7D128782A2810D06FF02F022878A0F16C
:102910003001092914D80AEB8A0102EB410144F085
:10292000020400EB010A6D1CF0E701CF5FEA000A28
:1029300003D544F40054CAF1000A44F002046D1CAB
:1029400028782E2817D115F8010F44F004042A28FE
:102950000ED06FF02F022878A0F1300109290AD893
:1029600009EB890102EB410100EB01096D1CF2E763
:1029700057F8049B6D1C28786C280FD006DC4C2877
:1029800017D068280DD06A2814D104E0742810D01C
:102990007A280FD10DE044F400140AE044F48014C6
:1029A00001E044F440146978814202D104F58014B6
:1029B0006D1C6D1C2A786E2A1FD00CDC632A31D066
:1029C00004DC002A8BD0582A11D1A3E0642A68D0F5
:1029D000692A0CD165E0732A2ED004DC6F2A73D0EB
:1029E000702A04D19BE0752A6FD0782A6ED01046E9
:1029F000DDE90F129047761C50E1C4F30250022823
:102A000006D0032809D0042801CF09D0066045E18B
:102A100001CFF117C0E9006140E101CF06803DE13F
:102A200006703BE117F8040B8DF8000000208DF8CC
:102A30000100EB46012003E057F804BB4FF0FF30E4
:102A400061074FF0000102D40DE008F10101884652
:102A500049450FDA8045F8DB1BF808100029F4D14E
:102A600008E008F1010188468142FADB1BF80810F2
:102A70000029F6D1DDE90F23AAEB080081462146A3
:102A800000F036F9304400EB080604E0DDE90F12EF
:102A90001BF8010B9047B8F10108F7D221464846D0
:102AA000F7E00A21C4F302534FF0000B0891022B08
:102AB00004D001CFC117032B09D00AE0FF1D27F076
:102AC0000707F7E8020108E032E01FE020E000B26B
:102AD000C117042B01D140B2C117031E71F10003CD
:102AE00007DA4FF0000CD0EB0C006CEB01012D234A
:102AF00002E0230504D52B238DF82430012303E0C5
:102B0000E30701D02023F7E7984658E00A2110E0B8
:102B100010210EE010204FF0000B08900CE0102167
:102B20004FF0000B44F004044FF00809089103E053
:102B300008214FF0000B0891C4F30253022B04D07C
:102B400001CF0021032B06D006E0FF1D27F0070769
:102B5000F7E8020103E080B2042B00D1C0B24FF0CD
:102B6000000823072BD5702A07D0DDF820C08CF091
:102B7000100C5CEA0B0C05D00EE040238DF82430DD
:102B8000012308E050EA010306D030238DF82430F9
:102B90008DF8252002239846DDF820C08CF0080C23
:102BA0005CEA0B0C0BD150EA010301D1630706D597
:102BB00030238DF824304FF00108A9F10109582A7B
:102BC00004D038A20B9208AA0A920BE03AA2F9E7C5
:102BD0005B46089AFDF76BFB0B9B9B5C0A9A521EA7
:102BE0000A92137050EA0102F2D10A98ADEB00008C
:102BF00000F1200B600702D524F4803401E04FF08F
:102C00000109D94502DDA9EB0B0000E0002000EB33
:102C10000B0141440890AAEB010AE00306D4DDE968
:102C20000F232146504600F063F806444FF0000998
:102C300008E009A911F80900DDE90F12904709F130
:102C40000109761CC145F4DBE0030CD5DDE90F2357
:102C50002146504600F04CF8064404E0DDE90F122E
:102C600030209047761C0899481E08900029F5DC12
:102C700008E00A980A990078491C0A91DDE90F12C8
:102C80009047761CBBF10001ABF1010BF1DC214652
:102C90005046DDE90F2300F019F806446D1C1BE6D1
:102CA0000928010030313233343536373839616222
:102CB00063646566000000003031323334353637E6
:102CC0003839414243444546000000002DE9F041B7
:102CD000044600251E461746880404D405E03946FC
:102CE0002020B0476D1C641EF9D52846BDE8F08150
:102CF0002DE9F041044600251E469046C80301D543
:102D0000302700E02027880404D505E041463846F6
:102D1000B0476D1C641EF9D52846BDE8F0810A68ED
:102D2000531C0B601070704710B5262001F01AFC80
:102D300001F0E0F90446FDF70DFB204610BD70B52B
:102D400005460C462F2001F00DFC284601F00CFC36
:102D500001F0D0F9207001F0CDF96070BDE870404D
:102D6000FDF7F8BA10B50024272001F0FBFBFDF7B2
:102D7000F1FA0A20FDF76EFC00F060F8102805D18A
:102D80002046641CE4B2C828F3D9FA2010BD70B5FF
:102D90000546232001F0E6FB002415F8010B01F0A5
:102DA000E3FB641CE4B2042CF7D3BDE87040FDF7EC
:102DB000D1BA70B50546222001F0D4FB002415F8E5
:102DC000010B01F0D1FB641CE4B2042CF7D3BDE885
:102DD0007040FDF7BFBA70B50546212001F0C2FB77
:102DE000002415F8010B01F0BFFB641CE4B2062CB3
:102DF000F7D3FDF7AFFABDE870406420FDF72ABCB9
:102E000070B50546242001F0ADFB002415F8010B38
:102E100001F0AAFB641CE4B2042CF7D3BDE87040B7
:102E2000FDF798BA10B504463F2001F09BFB204601
:102E300001F09AFBBDE81040FDF78CBA10B52C20CC
:102E400001F090FB01F056F90446FDF783FA2046A5
:102E500010BD000070B516460D0004461AD03C2087
:102E600001F080FB204601F07FFBE8B201F07CFB23
:102E7000280A01F079FB002406E000BF01F03AF9CE
:102E8000641C06F8010BA4B2AC42F7D3BDE8704055
:102E9000FDF760BA70BD10B504463B2001F062FB3F
:102EA000204601F061FB01F025F9044601F022F90A
:102EB00004EB002084B2FDF74DFA204610BD10B59A
:102EC0000446302001F04EFB204601F04DFB01F09E
:102ED00011F90446FDF73EFA204610BD70B50546CF
:102EE0000024352001F03EFB284601F03DFBFDF7B4
:102EF00031FA0520FDF7AEFBFFF7A0FF102805D142
:102F00002046641CE4B2C828F3D9FA2070BD70B51D
:102F1000044615460E46392001F024FB204601F0F8
:102F200023FBE8B201F020FB280A01F01DFB00247E
:102F300005E016F8010B01F017FB641CA4B2AC42CB
:102F4000F7D3BDE87040FDF705BA70B505460C46ED
:102F5000312001F007FB284601F006FB207801F044
:102F600003FB607801F000FBA07801F0FDFAE07847
:102F700001F0FAFABDE87040FDF7ECB970B505460E
:102F80000C46322001F0EEFA284601F0EDFAE0B2EC
:102F900001F0EAFA200A01F0E7FABDE87040FDF717
:102FA000D9B970B504460D46342001F0DBFA20464D
:102FB00001F0DAFA284601F0D7FABDE87040FDF7D3
:102FC000C9B970B505460024372001F0CBFA284670
:102FD00001F0CAFAFDF7BEF90520FDF73BFBFFF74C
:102FE0002DFF102805D12046641CE4B2C828F3D96F
:102FF000FA2070BD13B54FF6FF73012269460248EF
:10300000FEF7D4FC00981CBDC403002086B0FDF779
:1030100043FCFFF72FFAFEF7D7FDFEF75BFEFEF746
:103020007DFEFEF797FE17A0FFF704FC1B488169A1
:1030300041F0800181618069194C00F080000490AA
:10304000C020009001200190029003200390694667
:103050002046FDF711FB012240212046FDF708FC28
:10306000012280212046FDF703FC0EA0FFF7E2FBC2
:10307000012219491948FEF769FCFEF75DFD00F0D1
:103080003CF8FEE753797374656D20537461727474
:10309000696E672E2E2E0D0A0000000000100240FF
:1030A000001C014053797374656D20496E666F3A58
:1030B000205653313035332044697361626C656446
:1030C00020285046362F50463720536574204869D3
:1030D0006768290D0A000000010000200C04002090
:1030E00001460020842900D0C81C704710B500B9E3
:1030F000012000F0EBFB002010BD10B500F082FCB9
:10310000002010BD38B5D0E9011204683AB1C36897
:103110002BB100200090204600F06DFD38BD204608
:10312000BDE83840002200F045BD41684FF0010085
:1031300009B100F032BD00F025BD7FB50D46044653
:103140004169B0F9080081B1A16971B1FFF7C8FF09
:10315000D4E905128DE80700D4E900102B46226956
:1031600001F033F8039004B070BDFFF7B9FF03A975
:10317000CDE90001208A2B4682B2D4E9001000F08C
:10318000F7FF012801D00020EDE70398EBE70000EE
:103190002DE9F041184C0F460546E6682068001DF1
:1031A00000F0CCFA38B9206890F82C100120884043
:1031B000216981432161681C07D137B12168BDE8CD
:1031C000F0410E48091D00F0FDBA20683544B542B3
:1031D0004560216805D2A06BBDE8F041091D00F0F3
:1031E000D9BA606B091D00F0D5FAA06A854200D2F9
:1031F000A562BDE8F08100002C00002078050020C9
:103200002DE9F041054600F0E9FA2E4CA068401C7B
:10321000A06020682C4F10B1606940B32DE025609C
:10322000A068012829D1002606EB860007EB800064
:1032300000F0A2FA761C072EF6D323488C3000F05B
:103240009BFA2148A03000F097FA1F48B43000F0F4
:1032500093FA1D48C83000F08FFA1B48DC3000F0AC
:103260008BFA19488C3060631430A06305E0206845
:10327000E96AC06A884200D82560606A401C6062C2
:10328000E96A0120226988401043206101EB810036
:1032900007EB8000291D00F095FA00F0BFFA606985
:1032A00000280CD02068E96AC06A884207D2074922
:1032B0004FF080500860BFF34F8FBFF36F8FBDE8B2
:1032C000F08100002C0000209C04002004ED00E0B0
:1032D00030B4026C0B46002A0BD0C1681144C160A7
:1032E0008468A14201D30168C16030BC1846FCF774
:1032F00097BF30BC70472DE9F041856B17460446F7
:103300000026026C82B1C7B1E068FCF789FFE16872
:10331000206C091AE1602268914202D2A168081A61
:10332000E060022F16D017E02068A8B9A06800F06E
:10333000EBFF06460020A0600EE06068FCF770FF1F
:10334000216C606808446060A168884204D32068EA
:10335000606001E005B16D1E6D1CA5633046BDE8DF
:10336000F08110B5044690F8510058B101280CD0F6
:1033700002280FD0502080F31188BFF34F8FBFF386
:103380006F8FFEE7206B00F05DFA2046BDE810402D
:1033900000F058BA10BD000010484FF4A041420799
:1033A00006D0C01D0D4920F00700411AC1F5A0410B
:1033B0000B4A00230144C2E900030839183A21F0FE
:1033C000070111604B600B600B1AC0E9001393609A
:1033D0004FF0004053605061704700008C050020A2
:1033E00080000020144E154CA6F1C8074FF08058FD
:1033F000DFF84C9012E000BF00F0F0F9F068C5680B
:10340000281D00F09BF9A068401EA0606068401E67
:10341000606000F003FA2846FFF7A3FF6068002809
:10342000EAD138680128F9D9C9F80080BFF34F8F75
:10343000BFF36F8FF2E70000640500202C0000202E
:1034400004ED00E0002807D00021816001600B46F8
:103450000A46C16000F046BC70470346009829B197
:103460000260C0E90F31012100F0F8BB0060F8E70D
:103470002DE9F0479A46DDE9098481466FF00303A0
:10348000206B03EB82021044089E20F007077807A8
:1034900007D0502080F31188BFF34F8FBFF36F8F99
:1034A000FEE7002561B1002023180A5C83F8342070
:1034B0000A5C12B1401C1028F6D384F8435001E096
:1034C00084F83450072E00D30626E662C4E911655D
:1034D000201D00F05CF904F1180000F058F9246197
:1034E000C6F107006462A061E56484F8505052465A
:1034F0004946384600F010F92060B8F1000F01D0BD
:10350000C8F80040BDE8F08730B5114900E0114629
:103510000A688242FBD34B685C18844203D140683E
:1035200018444860084643681C18944209D1084C66
:10353000183C2468A24209D052681A4442600A68C2
:1035400012680260814200D0086030BD0460F9E773
:103550008000002010B5044600F040F9A06B28B1AF
:103560005FF0000400F05AF9204610BD0124F9E78D
:103570000648416B096829B1416BC968C968496847
:10358000816270474FF0FF31FAE700002C00002005
:1035900008484068401C4FF0500080F3118804D068
:1035A000BFF34F8FBFF36F8FFEE7BFF34F8FBFF3B4
:1035B0006F8FFEE7880000202DE9F041044600F0FF
:1035C0000DF994F9455004F1240609E0606A48B108
:1035D000304600F02BFF08B100F0A6F96D1E6DB269
:1035E000002DF3DC4FF0FF3684F8456000F016F94B
:1035F00000F0F4F894F9445004F1100709E0206950
:1036000048B1384600F012FF08B100F08DF96D1E88
:103610006DB2002DF3DC84F84460BDE8F04100F0A9
:10362000FDB800002DE9F0410546002700F020FA22
:10363000324E306808B9FFF7AFFE706905424ED1CF
:10364000C5B3083568070ED005F00700C0F10800C3
:103650000544680707D0502080F31188BFF34F8FCF
:10366000BFF36F8FFEE72DB37068854237D82348CC
:10367000183001460C6801E020460C466168A942FA
:1036800002D221680029F7D131688C4227D007681F
:103690002168016060680837411B10290FD9601943
:1036A000420708D0502080F31188BFF34F8FBFF33B
:1036B0006F8FFEE713E041606560FFF725FF6168EB
:1036C0007068401A7060B268904200D2B060706951
:1036D00001430020C4E90001F068401CF06000F0E4
:1036E000DFFE780707D0502080F31188BFF34F8F9B
:1036F000BFF36F8FFEE73846BDE8F0816800002019
:103700000449086818B10868826C521C8264086811
:10371000704700002C00002010B5031F4FF080748C
:103720001C601B1F21F001011960191F024B0B6067
:10373000143940380A6010BD91350008D0E90132D3
:1037400001699A60D0E901235A604A68824201D136
:1037500082684A60002202610868401E08600868AA
:1037600070470000034B036003F1540008608020A1
:10377000106070471801002000F108014FF0FF327F
:10378000C0E90112C16001610021016070470021A0
:103790000161704730B50B685A1C02D000F1080275
:1037A00002E0026904E02246546825689D42FAD985
:1037B00053684B6099608A60516008610168491CD8
:1037C000016030BD42684A6093688B6093685960BD
:1037D000916008610168491C01607047502080F3C6
:1037E0001188BFF34F8FBFF36F8F0A494868401CA1
:1037F000486001280CD10848006810F0FF0F07D07E
:10380000502080F31188BFF34F8FBFF36F8FFEE717
:10381000704700008800002004ED00E00849486877
:1038200028B1401E486001D180F3118870475020B4
:1038300080F31188BFF34F8FBFF36F8FFEE7000057
:103840008800002070B500282AD0164DA0F1080489
:1038500060686969084207D1502080F31188BFF37E
:103860004F8FBFF36F8FFEE722683AB1502080F38D
:103870001188BFF34F8FBFF36F8FFEE788436060FF
:1038800000F0F6F860686968084468602046FFF751
:103890003BFE2869401C2861BDE8704000F000BE76
:1038A00070BD0000680000204FF0E02000210161A1
:1038B000816105494FF47A720968B1FBF2F1491E42
:1038C00041610721016170472800002010B5020006
:1038D00014D00F48006B38B1502080F31188BFF32B
:1038E0004F8FBFF36F8FFEE700F0C2F80021104644
:1038F000FFF74EFC00F0D4FD002807D105494FF03A
:1039000080500860BFF34F8FBFF36F8F10BD000072
:103910002C00002004ED00E002490A6A0260C96838
:10392000416070472C00002001490120C8617047A8
:103930002C00002010B50C4650B109490968183117
:10394000FFF728FF2046BDE810400121FFF720BC0B
:10395000502080F31188BFF34F8FBFF36F8FFEE7C6
:103960002C00002070B5040047D0A26CA2B1606C9E
:10397000884200D30146E06A88423ED0012A3CD109
:103980001E4D2A6894420FD1502080F31188BFF356
:103990004F8FBFF36F8FFEE7502080F31188BFF386
:1039A0004F8FBFF36F8FFEE7E162A269002A02DB4F
:1039B000C1F10701A161124E00EB8000616906EBC5
:1039C0008000814219D1201DFFF7B8FE012130B9D6
:1039D00094F82C002A6901FA00F082432A61E06A17
:1039E0002A6981401143296100EB800006EB8000C9
:1039F000211DBDE87040FFF7E5BE70BD2C00002022
:103A00009C04002010B586B00024039405AA04A9E4
:103A100003A80494FFF7A6FEDDE903010094CDE9B5
:103A2000011000230EA11048059A00F0CEFB0F49AB
:103A30000028C86211D0502080F31188BFF34F8F47
:103A4000BFF36F8F4FF0FF30886201204861CC6078
:103A500006B0BDE8104000F041B806B010BD00004F
:103A600049444C4500000000E53300082C000020CC
:103A70000248016B491C0163704700002C000020C4
:103A80001448016B11B10121C16170470021C1616E
:103A90000169B1FA81F1C1F11F0101EB81020E4907
:103AA00051F822306BB101EB820101F108034A6841
:103AB00052684A609A4201D152684A60D1680160F6
:103AC0007047502080F31188BFF34F8FBFF36F8F83
:103AD000FEE700002C0000209C0400201CB52649B5
:103AE00008780190FF20087008788DF800009DF894
:103AF00000009DF8002000F0F000904207D0502018
:103B000080F31188BFF34F8FBFF36F8FFEE79DF8EF
:103B100000001A4C00F0500020700720A06005E063
:103B20009DF8002052008DF80020401E9DF80020D6
:103B30001206F5D4A060032807D0502080F3118826
:103B4000BFF34F8FBFF36F8FFEE74FF44070A0605D
:103B5000019808700A48016841F470010160016829
:103B600041F070410160FFF79FFE00206060FCF7AC
:103B7000FBFA00201CBD000000E400E088000020EB
:103B800020ED00E010B502460021012000F012F8FF
:103B90000446FFF757FC204610BD38B50B460022FF
:103BA00000901146012000F026F80446FFF74AFC79
:103BB000204638BDF8B517460E46050013D005FB64
:103BC00006F04830FFF72EFD04000AD0002084F8EC
:103BD000460004F148023B46314628460094FFF770
:103BE0003CFC2046F8BD502080F31188BFF34F8F76
:103BF000BFF36F8FFEE738B5049D18B153B1CAB15A
:103C000081B120E0502080F31188BFF34F8FBFF3C4
:103C10006F8FFEE7502080F31188BFF34F8FBFF303
:103C20006F8FFEE7502080F31188BFF34F8FBFF3F3
:103C30006F8FFEE739B1502080F31188BFF34F8FAB
:103C4000BFF36F8FFEE748241C46012384F84630FB
:103C50002B460094FFF701FC204638BD70B50D4699
:103C6000040025D0FFF7BAFDD4E90F20216802FB3C
:103C70000011A1600021A163216861600A46D4E9B6
:103C80000F01401E00FB0121E16021464FF0FF3093
:103C900001F8440F487004F110008DB1FFF76CFD7E
:103CA00004F12400FFF768FDFFF7B8FD012070BDA7
:103CB000502080F31188BFF34F8FBFF36F8FFEE763
:103CC00021690029F0D000F0B1FB0028ECD00449B4
:103CD0004FF080500860BFF34F8FBFF36F8FE3E763
:103CE00004ED00E02DE9FF4782B01D468A464FF003
:103CF0000008040003D0BAF1000F08D011E05020F2
:103D000080F31188BFF34F8FBFF36F8FFEE7206CF6
:103D100038B1502080F31188BFF34F8FBFF36F8FFE
:103D2000FEE7022D0AD1E06B012807D0502080F376
:103D30001188BFF34F8FBFF36F8FFEE700F070FA6B
:103D40003F4F4FF000094FF0805648B9049838B102
:103D5000502080F31188BFF34F8FBFF36F8FFEE7C2
:103D6000FFF73CFDA06BE16B884207D3022D05D025
:103D70000498D0B1B8F1000F1AD01EE02A4651467F
:103D80002046FFF7B8FA616A19B104F1240000F087
:103D90004DFB20B13E60BFF34F8FBFF36F8FFFF736
:103DA0003DFD012006B0BDE8F087FFF737FD22E0BA
:103DB0006846FFF7B1FD4FF00108FFF72FFDFFF751
:103DC00057FEFFF70BFD94F94400401C01D184F825
:103DD000449094F94500401C01D184F84590FFF7C8
:103DE0001DFD04A9684600F089F930B12046FFF7AF
:103DF000E3FB00F055FB0020D4E7FFF7EFFCA06BDE
:103E0000E16B884213D1FFF709FD04F1100004991A
:103E1000FFF790FD2046FFF7CFFB00F041FB0028A5
:103E20009ED13E60BFF34F8FBFF36F8F98E7FFF7D0
:103E3000F5FC2046FFF7C0FB00F032FB90E70000E6
:103E400004ED00E02DE9F747002683B08A46040020
:103E500003D0BAF1000F08D011E0502080F3118890
:103E6000BFF34F8FBFF36F8FFEE7206C38B1502048
:103E700080F31188BFF34F8FBFF36F8FFEE700F021
:103E8000CFF9DFF8F4804FF000094FF0805748B9C0
:103E9000059838B1502080F31188BFF34F8FBFF3DE
:103EA0006F8FFEE7FFF79AFCA56BC5B15146204620
:103EB000FFF70EFA6D1EA563206950B104F11000E2
:103EC00000F0B4FA28B1C8F80070BFF34F8FBFF309
:103ED0006F8FFFF7A3FC012006B0BDE8F0870598BF
:103EE00008B11EB106E0FFF799FC27E06846FFF72E
:103EF00013FD0126FFF792FCFFF7BAFDFFF76EFCFA
:103F000094F94400401C01D184F8449094F9450090
:103F1000401C01D184F84590FFF780FC05A9684654
:103F200000F0ECF8002820460AD0FFF745FB00F02F
:103F3000B7FA2046FFF70EFB0028B3D00020CBE7EE
:103F4000FFF708FB90B104F124000599FFF7F2FC9C
:103F50002046FFF731FB00F0A3FA0028A2D1C8F8F1
:103F60000070BFF34F8FBFF36F8F9BE72046FFF7C3
:103F700023FB00F095FA95E704ED00E02DE9F3430B
:103F8000002683B00400354609D0206C78B150205B
:103F900080F31188BFF34F8FBFF36F8FFEE7502080
:103FA00080F31188BFF34F8FBFF36F8FFEE700F0F0
:103FB00037F9DFF83C814FF000094FF0805748B9DE
:103FC000049838B1502080F31188BFF34F8FBFF3AE
:103FD0006F8FFEE7FFF702FCA06BC8B1401EA06325
:103FE000206810B9FFF78CFBA060206950B104F184
:103FF000100000F01BFA28B1C8F80070BFF34F8F13
:10400000BFF36F8FFFF70AFC012005B0BDE8F08316
:10401000049808B166B10FE03DB1502080F31188DB
:10402000BFF34F8FBFF36F8FFEE7FFF7F7FB5DE046
:104030006846FFF771FC0126FFF7F0FBFFF718FD5C
:10404000FFF7CCFB94F94400401C01D184F8449064
:1040500094F94500401C01D184F84590FFF7DEFB40
:1040600004A9684600F04AF80028204612D0FFF75D
:10407000A3FA00F015FA2046FFF76CFA0028A9D041
:104080009DB3FFF7ABFB606A50B3206B0068C0F1D3
:10409000070126E0FFF75EFAE0B1206838B9FFF7C4
:1040A0009DFBA06800F07CF90546FFF7B7FB04F123
:1040B00024000499FFF73EFC2046FFF77DFA00F04C
:1040C000EFF9002886D1C8F80070BFF34F8FBFF317
:1040D0006F8F7FE72046FFF76FFA00F0E1F979E78D
:1040E0000021A068FFF73EFC9FE7FFE700208CE778
:1040F00004ED00E0FF20FDF7C1BE00002DE9F04116
:104100000C46050011D0C4B1FFF768FB174BDA6805
:104110006E682068911B471C17D02F681B6A9F424E
:1041200019D0964217D8012410E0502080F311884E
:10413000BFF34F8FBFF36F8FFEE7502080F31188DE
:10414000BFF34F8FBFF36F8FFEE70024FFF766FBCF
:104150002046BDE8F081884205D9401A20602846F3
:10416000FFF7DAFBF1E700202060DCE72C000020FD
:104170002DE9FF5F8346DDE90E87994616468A469C
:104180009000FFF74FFA05001CD05420FFF74AFAC1
:10419000040014D00020256384F85100CDE90240CA
:1041A000CDE900874B46324651465846FFF760F945
:1041B0002046FFF725F8012004B0BDE8F09F28460F
:1041C000FFF740FB4FF0FF30F6E7F0B585B0DDE9D3
:1041D0000B640A9DA6B1DCB1542700972663022622
:1041E00084F85160002604AFCDE90246CDE90057BE
:1041F000FFF73EF92046FFF703F8049805B0F0BD3D
:10420000502080F31188BFF34F8FBFF36F8FFEE70D
:10421000502080F31188BFF34F8FBFF36F8FFEE7FD
:104220000548416919B1006B18B1002070470120A1
:1042300070470220704700002C0000202DE9F0415B
:104240002F4C0026206B28B1A069401CA06130468D
:10425000BDE8F081E5686D1CE56013D1606B006816
:1042600038B1502080F31188BFF34F8FBFF36F8FA9
:10427000FEE7606BA16B6163A063206A401C206253
:10428000FFF776F9A06ADFF87C80854209D3606B7E
:104290000068A0B1606BC068C7687868854211D2B9
:1042A000A0622068C06A00EB800158F82100012854
:1042B00000D90126E0690028C9D00126C7E74FF0E0
:1042C000FF30EDE7381DFFF739FAB86A18B107F18A
:1042D0001800FFF733FAF96A012022698840104379
:1042E000206101EB810108EB8100391DFFF76AFABB
:1042F000F86A2168C96A8842C9D30126C7E7000065
:104300002C0000209C04002070B504004FF0000138
:1043100040D0214D2868844207D0502080F3118876
:10432000BFF34F8FBFF36F8FFEE7A06C38B1401E15
:10433000A064636CE26A9A422CD040B12AE050201B
:1043400080F31188BFF34F8FBFF36F8FFEE7201DFF
:10435000FFF7F4F9114A012150B9E06A00EB80033C
:1043600052F8233023B92B6901FA00F083432B6103
:10437000606CE062C0F10700A061E06A2B698140D7
:104380001943296100EB800002EB8000211DFFF73B
:1043900019FA0121084670BD2C0000209C04002061
:1043A00070B504004FF0000034D01E4DE16A2A6859
:1043B000D26A91422FD2A069002804DB2868C06A23
:1043C000C0F10700A061184E01EB8101606906EBA6
:1043D000810188421AD1201DFFF7B0F9012130B9BF
:1043E00094F82C002A6901FA00F082432A612868B7
:1043F000C06AE0622A6981401143296100EB8000B4
:1044000006EB8000211DFFF7DDF902E02868C06A95
:10441000E062012070BD616C2A68D26A9142F8D3D3
:1044200070BD00002C0000209C0400202DE9F0410C
:10443000C068C468ACB104F118000746FFF77EF904
:10444000154D286B0126A0B139461448FFF7BAF97B
:10445000E06A2968C96A88421CD90120EE61BDE87A
:10446000F081502080F31188BFF34F8FBFF36F8F1F
:10447000FEE7201DFFF762F9E16A2A6906FA01F0FA
:104480001043286101EB81000449B43901EB80003D
:10449000211DDBE70020E2E72C0000205005002072
:1044A0002DE9F0472C4D00242746286B38B1FFF743
:1044B00095F9286B401E2863286B40B146E05020D8
:1044C00080F31188BFF34F8FBFF36F8FFEE7A968AA
:1044D000224E0120D1B3A6F1B40980463068E8B17C
:1044E000F068C46804F11800FFF728F9201DFFF7F1
:1044F00025F9E06A2A6908FA00F11143296100EB05
:10450000800109EB8100211DFFF75CF9E06A296851
:10451000C96A8842E2D3C5F81C80DFE70CB1FFF717
:1045200027F8AC6944B14646FFF788FE00B1EE615A
:10453000641EF9D10020A861E86938B10849012753
:1045400038070860BFF34F8FBFF36F8FFFF766F92F
:104550003846BDE8F08700002C0000205005002000
:1045600004ED00E0FDF78ABCFDF788BC0400000004
:104570000200000000000000000000002C470008BE
:10458000A11E0008000000000000000080000000E4
:10459000000000000000000048470008A1230008B8
:1045A0000200000000000000000200000000000007
:1045B0000000000020470008A91E000800000000BD
:1045C00000000000000200000000000000000000E9
:1045D00038470008A9230008000000000000000080
:1045E00000020000000000000000000001020203C1
:1045F0000405060708090A0B0C0D0E0F1010000029
:104600000000000000000102030406070809000082
:104610000000010203040000485454502F312E3191
:1046200020323030204F4B0D0A436F6E74656E742C
:104630002D547970653A20746578742F68746D6CA8
:104640000D0A436F6E6E656374696F6E3A20636C1A
:104650006F73650D0A0D0A3C68746D6C3E3C626FA9
:1046600064793E3C68313E53544D333220525455A8
:104670002057656220436F6E6669673C2F68313E44
:104680003C666F726D3E4D5154542049503A203C67
:10469000696E70757420747970653D2774657874DF
:1046A000272076616C75653D273139322E313638D9
:1046B0002E312E313030273E3C62723E506F727484
:1046C0003A203C696E70757420747970653D27746A
:1046D000657874272076616C75653D2731383833ED
:1046E000273E3C62723E3C696E707574207479702E
:1046F000653D277375626D6974272076616C7565F9
:104700003D2753617665273E3C2F666F726D3E3CB8
:104710002F626F64793E3C2F68746D6C3E00000020
:104720005461736B5F4D51545400000053746172B7
:10473000745461736B0000005461736B5F57656262
:1047400053657276657200005461736B5F4D6F64E0
:104750006275730074470008000000209800000094
:104760009C2800080C48000898000020F858000019
:10477000AC2800080000000000000000000000005D
:104780000000000000000000000000000000000029
:1047900001000000100000000000000000127A007C
:1047A0000000000000000000000000000000000009
:1047B00000000000000000000000000000000000F9
:1047C00000000000000000000000000000000000E9
:1047D00000000000000000000000000000000000D9
:1047E00000000000000000000000000000000000C9
:1047F00000000000000000000000000000000000B9
:0C480000AAAAAAAA000000000000000004
:0400000508000131BD
:00000001FF
